{
  "address": "0xB5fc6FC4053b5a92403f787e5aD6a0C6Be0BBBcd",
  "abi": [
    {
      "inputs": [
        {
          "internalType": "address",
          "name": "_sender",
          "type": "address"
        }
      ],
      "name": "NotBridge",
      "type": "error"
    },
    {
      "inputs": [
        {
          "internalType": "address",
          "name": "_l1Contract",
          "type": "address"
        }
      ],
      "name": "WrongSourceContract",
      "type": "error"
    },
    {
      "anonymous": false,
      "inputs": [
        {
          "indexed": false,
          "internalType": "uint8",
          "name": "version",
          "type": "uint8"
        }
      ],
      "name": "Initialized",
      "type": "event"
    },
    {
      "anonymous": false,
      "inputs": [
        {
          "indexed": true,
          "internalType": "address",
          "name": "_from",
          "type": "address"
        },
        {
          "indexed": true,
          "internalType": "address",
          "name": "_to",
          "type": "address"
        },
        {
          "indexed": false,
          "internalType": "uint256",
          "name": "_amount",
          "type": "uint256"
        }
      ],
      "name": "MessageReceived",
      "type": "event"
    },
    {
      "anonymous": false,
      "inputs": [
        {
          "indexed": true,
          "internalType": "address",
          "name": "_from",
          "type": "address"
        },
        {
          "indexed": true,
          "internalType": "address",
          "name": "_to",
          "type": "address"
        },
        {
          "indexed": false,
          "internalType": "uint256",
          "name": "_amount",
          "type": "uint256"
        }
      ],
      "name": "MessageSent",
      "type": "event"
    },
    {
      "anonymous": false,
      "inputs": [
        {
          "indexed": true,
          "internalType": "address",
          "name": "proposedOwner",
          "type": "address"
        }
      ],
      "name": "OwnershipProposed",
      "type": "event"
    },
    {
      "anonymous": false,
      "inputs": [
        {
          "indexed": true,
          "internalType": "address",
          "name": "previousOwner",
          "type": "address"
        },
        {
          "indexed": true,
          "internalType": "address",
          "name": "newOwner",
          "type": "address"
        }
      ],
      "name": "OwnershipTransferred",
      "type": "event"
    },
    {
      "anonymous": false,
      "inputs": [
        {
          "indexed": false,
          "internalType": "address",
          "name": "account",
          "type": "address"
        }
      ],
      "name": "Paused",
      "type": "event"
    },
    {
      "anonymous": false,
      "inputs": [
        {
          "indexed": false,
          "internalType": "address",
          "name": "account",
          "type": "address"
        }
      ],
      "name": "Unpaused",
      "type": "event"
    },
    {
      "inputs": [],
      "name": "OVM_L2_CROSS_DOMAIN_MESSENGER",
      "outputs": [
        {
          "internalType": "contract IOVML2CrossDomainMessenger",
          "name": "",
          "type": "address"
        }
      ],
      "stateMutability": "view",
      "type": "function"
    },
    {
      "inputs": [],
      "name": "acceptProposedOwner",
      "outputs": [],
      "stateMutability": "nonpayable",
      "type": "function"
    },
    {
      "inputs": [
        {
          "internalType": "address",
          "name": "_to",
          "type": "address"
        },
        {
          "internalType": "uint256",
          "name": "_amount",
          "type": "uint256"
        }
      ],
      "name": "burnAndBridgeToL1",
      "outputs": [],
      "stateMutability": "nonpayable",
      "type": "function"
    },
    {
      "inputs": [],
      "name": "delay",
      "outputs": [
        {
          "internalType": "uint256",
          "name": "",
          "type": "uint256"
        }
      ],
      "stateMutability": "view",
      "type": "function"
    },
    {
      "inputs": [
        {
          "internalType": "address",
          "name": "_owner",
          "type": "address"
        },
        {
          "internalType": "address",
          "name": "_zoomer",
          "type": "address"
        }
      ],
      "name": "initialize",
      "outputs": [],
      "stateMutability": "nonpayable",
      "type": "function"
    },
    {
      "inputs": [],
      "name": "l1Contract",
      "outputs": [
        {
          "internalType": "address",
          "name": "",
          "type": "address"
        }
      ],
      "stateMutability": "view",
      "type": "function"
    },
    {
      "inputs": [
        {
          "internalType": "address",
          "name": "_from",
          "type": "address"
        },
        {
          "internalType": "address",
          "name": "_to",
          "type": "address"
        },
        {
          "internalType": "uint256",
          "name": "_amount",
          "type": "uint256"
        }
      ],
      "name": "mintFromL1",
      "outputs": [],
      "stateMutability": "nonpayable",
      "type": "function"
    },
    {
      "inputs": [],
      "name": "owner",
      "outputs": [
        {
          "internalType": "address",
          "name": "",
          "type": "address"
        }
      ],
      "stateMutability": "view",
      "type": "function"
    },
    {
      "inputs": [],
      "name": "pause",
      "outputs": [],
      "stateMutability": "nonpayable",
      "type": "function"
    },
    {
      "inputs": [],
      "name": "paused",
      "outputs": [
        {
          "internalType": "bool",
          "name": "",
          "type": "bool"
        }
      ],
      "stateMutability": "view",
      "type": "function"
    },
    {
      "inputs": [
        {
          "internalType": "address",
          "name": "newlyProposed",
          "type": "address"
        }
      ],
      "name": "proposeNewOwner",
      "outputs": [],
      "stateMutability": "nonpayable",
      "type": "function"
    },
    {
      "inputs": [],
      "name": "proposed",
      "outputs": [
        {
          "internalType": "address",
          "name": "",
          "type": "address"
        }
      ],
      "stateMutability": "view",
      "type": "function"
    },
    {
      "inputs": [],
      "name": "proposedTimestamp",
      "outputs": [
        {
          "internalType": "uint256",
          "name": "",
          "type": "uint256"
        }
      ],
      "stateMutability": "view",
      "type": "function"
    },
    {
      "inputs": [],
      "name": "renounceOwnership",
      "outputs": [],
      "stateMutability": "nonpayable",
      "type": "function"
    },
    {
      "inputs": [],
      "name": "renounced",
      "outputs": [
        {
          "internalType": "bool",
          "name": "",
          "type": "bool"
        }
      ],
      "stateMutability": "view",
      "type": "function"
    },
    {
      "inputs": [
        {
          "internalType": "address",
          "name": "_l1Contract",
          "type": "address"
        }
      ],
      "name": "setL1Contract",
      "outputs": [],
      "stateMutability": "nonpayable",
      "type": "function"
    },
    {
      "inputs": [],
      "name": "zoomer",
      "outputs": [
        {
          "internalType": "contract IXERC20",
          "name": "",
          "type": "address"
        }
      ],
      "stateMutability": "view",
      "type": "function"
    }
  ],
  "transactionHash": "0x531d37ca94855207a1a4cf65f48280d7079194287350e4a60f43fedfe996dfc1",
  "args": [],
  "numDeployments": 1,
  "solcInputHash": "c5ed92cfa7c216a7a1ade5e9599f4ac7",
  "bytecode": "0x608060405234801561001057600080fd5b506110fc806100206000396000f3fe608060405234801561001057600080fd5b506004361061011b5760003560e01c8063715018a6116100b25780639ccfb38c11610081578063c5b350df11610066578063c5b350df1461022b578063d1851c9214610233578063d232c2201461024457600080fd5b80639ccfb38c14610205578063b1f8100d1461021857600080fd5b8063715018a6146101cb57806372a9ab56146101d35780638456cb59146101e65780638da5cb5b146101ee57600080fd5b806364675d4e116100ee57806364675d4e1461018e578063663ab59d146101a15780636a42b8f8146101b45780636a4df1df146101bd57600080fd5b80633ce37c5b146101205780633cf52ffb14610150578063485cc955146101625780635c975abb14610177575b600080fd5b609654610133906001600160a01b031681565b6040516001600160a01b0390911681526020015b60405180910390f35b6002545b604051908152602001610147565b610175610170366004610f33565b61025d565b005b60645460ff165b6040519015158152602001610147565b61017561019c366004610f6c565b6103bd565b609754610133906001600160a01b031681565b62093a80610154565b6101336007602160991b0181565b610175610586565b6101756101e1366004610f98565b6106c7565b61017561073f565b6000546201000090046001600160a01b0316610133565b610175610213366004610fbc565b610790565b610175610226366004610f98565b6109ef565b610175610aed565b6001546001600160a01b0316610133565b61017e6000546201000090046001600160a01b03161590565b600054610100900460ff161580801561027d5750600054600160ff909116105b806102975750303b158015610297575060005460ff166001145b61030e5760405162461bcd60e51b815260206004820152602e60248201527f496e697469616c697a61626c653a20636f6e747261637420697320616c72656160448201527f647920696e697469616c697a656400000000000000000000000000000000000060648201526084015b60405180910390fd5b6000805460ff191660011790558015610331576000805461ff0019166101001790555b610339610bcf565b610341610c42565b61034a83610cb5565b6096805473ffffffffffffffffffffffffffffffffffffffff19166001600160a01b03841617905580156103b8576000805461ff0019169055604051600181527f7f26b83ff96e1f2b6a682f133852f6798a09c465da95921460cefb38474024989060200160405180910390a15b505050565b6103c5610d2b565b6096546040517f9dc29fac000000000000000000000000000000000000000000000000000000008152336004820152602481018390526001600160a01b0390911690639dc29fac90604401600060405180830381600087803b15801561042a57600080fd5b505af115801561043e573d6000803e3d6000fd5b50506097546040513360248201526001600160a01b038681166044830152606482018690526007602160991b019450633dbb202b93509091169060840160408051601f198184030181529181526020820180517bffffffffffffffffffffffffffffffffffffffffffffffffffffffff167fa1549753000000000000000000000000000000000000000000000000000000001790525160e084901b7fffffffff00000000000000000000000000000000000000000000000000000000168152610510929190620f424090600401610ffd565b600060405180830381600087803b15801561052a57600080fd5b505af115801561053e573d6000803e3d6000fd5b50506040518381526001600160a01b03851692503391507f8e3ce0a37f42bfb0e85f8f02c440ff2843d1182d7f1fce9174f7980e5e9d130c9060200160405180910390a35050565b6000546201000090046001600160a01b031633146105cf5760405162461bcd60e51b815260206004820152600660248201526510b7bbb732b960d11b6044820152606401610305565b6000600254116106215760405162461bcd60e51b815260206004820152600860248201527f21737461727465640000000000000000000000000000000000000000000000006044820152606401610305565b62093a80600254426106339190611069565b1161066b5760405162461bcd60e51b815260206004820152600860248201526708595b185c1cd95960c21b6044820152606401610305565b6001546001600160a01b0316156106b05760405162461bcd60e51b8152602060048201526009602482015268085c1c9bdc1bdcd95960ba1b6044820152606401610305565b6001546106c5906001600160a01b0316610cb5565b565b6000546201000090046001600160a01b031633146107105760405162461bcd60e51b815260206004820152600660248201526510b7bbb732b960d11b6044820152606401610305565b6097805473ffffffffffffffffffffffffffffffffffffffff19166001600160a01b0392909216919091179055565b6000546201000090046001600160a01b031633146107885760405162461bcd60e51b815260206004820152600660248201526510b7bbb732b960d11b6044820152606401610305565b6106c5610d7e565b610798610d2b565b336007602160991b01146107da576040517ff91b419e000000000000000000000000000000000000000000000000000000008152336004820152602401610305565b609754604080517f6e296e4500000000000000000000000000000000000000000000000000000000815290516001600160a01b03909216916007602160991b0191636e296e459160048083019260209291908290030181865afa158015610845573d6000803e3d6000fd5b505050506040513d601f19601f8201168201806040525081019061086991906110a9565b6001600160a01b03161461091e576007602160991b016001600160a01b0316636e296e456040518163ffffffff1660e01b8152600401602060405180830381865afa1580156108bc573d6000803e3d6000fd5b505050506040513d601f19601f820116820180604052508101906108e091906110a9565b6040517f1145301f0000000000000000000000000000000000000000000000000000000081526001600160a01b039091166004820152602401610305565b6096546040517f40c10f190000000000000000000000000000000000000000000000000000000081526001600160a01b03848116600483015260248201849052909116906340c10f1990604401600060405180830381600087803b15801561098557600080fd5b505af1158015610999573d6000803e3d6000fd5b50505050816001600160a01b0316836001600160a01b03167fe355996e2996142ac85dc67216bbb3fc359221d123a11cdfeee89bc680e99708836040516109e291815260200190565b60405180910390a3505050565b6000546201000090046001600160a01b03163314610a385760405162461bcd60e51b815260206004820152600660248201526510b7bbb732b960d11b6044820152606401610305565b6001546001600160a01b038281169116141580610a5c57506001600160a01b038116155b610a945760405162461bcd60e51b8152602060048201526009602482015268085c1c9bdc1bdcd95960ba1b6044820152606401610305565b6000546001600160a01b03808316620100009092041603610ae15760405162461bcd60e51b8152602060048201526007602482015266216368616e676560c81b6044820152606401610305565b610aea81610dd8565b50565b6001546001600160a01b03163314610b335760405162461bcd60e51b8152602060048201526009602482015268085c1c9bdc1bdcd95960ba1b6044820152606401610305565b6001546000546001600160a01b039182166201000090910490911603610b855760405162461bcd60e51b8152602060048201526007602482015266216368616e676560c81b6044820152606401610305565b62093a8060025442610b979190611069565b116106b05760405162461bcd60e51b815260206004820152600860248201526708595b185c1cd95960c21b6044820152606401610305565b600054610100900460ff16610c3a5760405162461bcd60e51b815260206004820152602b60248201527f496e697469616c697a61626c653a20636f6e7472616374206973206e6f74206960448201526a6e697469616c697a696e6760a81b6064820152608401610305565b6106c5610e33565b600054610100900460ff16610cad5760405162461bcd60e51b815260206004820152602b60248201527f496e697469616c697a61626c653a20636f6e7472616374206973206e6f74206960448201526a6e697469616c697a696e6760a81b6064820152608401610305565b6106c5610ea7565b600080546001600160a01b03838116620100008181027fffffffffffffffffffff0000000000000000000000000000000000000000ffff8516178555600285905560405193049190911692909183917f8be0079c531659141344cd1fd0a4f28419497f9722a3daafe3b4186f6b6457e091a35050565b60645460ff16156106c55760405162461bcd60e51b815260206004820152601060248201527f5061757361626c653a20706175736564000000000000000000000000000000006044820152606401610305565b610d86610d2b565b6064805460ff191660011790557f62e78cea01bee320cd4e420270b5ea74000d11b0c9f74754ebdbfc544b05a258610dbb3390565b6040516001600160a01b03909116815260200160405180910390a1565b426002556001805473ffffffffffffffffffffffffffffffffffffffff19166001600160a01b0383169081179091556040517f6ab4d119f23076e8ad491bc65ce85f017fb0591dce08755ba8591059cc51737a90600090a250565b600054610100900460ff16610e9e5760405162461bcd60e51b815260206004820152602b60248201527f496e697469616c697a61626c653a20636f6e7472616374206973206e6f74206960448201526a6e697469616c697a696e6760a81b6064820152608401610305565b6106c533610cb5565b600054610100900460ff16610f125760405162461bcd60e51b815260206004820152602b60248201527f496e697469616c697a61626c653a20636f6e7472616374206973206e6f74206960448201526a6e697469616c697a696e6760a81b6064820152608401610305565b6064805460ff19169055565b6001600160a01b0381168114610aea57600080fd5b60008060408385031215610f4657600080fd5b8235610f5181610f1e565b91506020830135610f6181610f1e565b809150509250929050565b60008060408385031215610f7f57600080fd5b8235610f8a81610f1e565b946020939093013593505050565b600060208284031215610faa57600080fd5b8135610fb581610f1e565b9392505050565b600080600060608486031215610fd157600080fd5b8335610fdc81610f1e565b92506020840135610fec81610f1e565b929592945050506040919091013590565b6001600160a01b038416815260006020606081840152845180606085015260005b8181101561103a5786810183015185820160800152820161101e565b506000608082860101526080601f19601f8301168501019250505063ffffffff83166040830152949350505050565b818103818111156110a3577f4e487b7100000000000000000000000000000000000000000000000000000000600052601160045260246000fd5b92915050565b6000602082840312156110bb57600080fd5b8151610fb581610f1e56fea26469706673582212207149604678029ce77723138b740a4ace6b9677df8843edd2c101a2aa519cbb1d64736f6c63430008130033",
  "devdoc": {
    "events": {
      "Initialized(uint8)": {
        "details": "Triggered when the contract has been initialized or reinitialized."
      },
      "Paused(address)": {
        "details": "Emitted when the pause is triggered by `account`."
      },
      "Unpaused(address)": {
        "details": "Emitted when the pause is lifted by `account`."
      }
    },
    "kind": "dev",
    "methods": {
      "paused()": {
        "details": "Returns true if the contract is paused, and false otherwise."
      }
    },
    "version": 1
  },
  "userdoc": {
    "kind": "user",
    "methods": {
      "acceptProposedOwner()": {
        "notice": "Transfers ownership of the contract to a new account (`newOwner`). Can only be called by the current owner."
      },
      "delay()": {
        "notice": "Returns the delay period before a new owner can be accepted."
      },
      "owner()": {
        "notice": "Returns the address of the current owner."
      },
      "proposeNewOwner(address)": {
        "notice": "Sets the timestamp for an owner to be proposed, and sets the newly proposed owner as step 1 in a 2-step process"
      },
      "proposed()": {
        "notice": "Returns the address of the proposed owner."
      },
      "proposedTimestamp()": {
        "notice": "Returns the address of the proposed owner."
      },
      "renounceOwnership()": {
        "notice": "Renounces ownership of the contract after a delay"
      },
      "renounced()": {
        "notice": "Indicates if the ownership has been renounced() by checking if current owner is address(0)"
      }
    },
    "version": 1
  },
  "storageLayout": {
    "storage": [
      {
        "astId": 163,
        "contract": "src/OpL2XERC20Bridge.sol:OpL2XERC20Bridge",
        "label": "_initialized",
        "offset": 0,
        "slot": "0",
        "type": "t_uint8"
      },
      {
        "astId": 166,
        "contract": "src/OpL2XERC20Bridge.sol:OpL2XERC20Bridge",
        "label": "_initializing",
        "offset": 1,
        "slot": "0",
        "type": "t_bool"
      },
      {
        "astId": 6343,
        "contract": "src/OpL2XERC20Bridge.sol:OpL2XERC20Bridge",
        "label": "_owner",
        "offset": 2,
        "slot": "0",
        "type": "t_address"
      },
      {
        "astId": 6345,
        "contract": "src/OpL2XERC20Bridge.sol:OpL2XERC20Bridge",
        "label": "_proposed",
        "offset": 0,
        "slot": "1",
        "type": "t_address"
      },
      {
        "astId": 6347,
        "contract": "src/OpL2XERC20Bridge.sol:OpL2XERC20Bridge",
        "label": "_proposedOwnershipTimestamp",
        "offset": 0,
        "slot": "2",
        "type": "t_uint256"
      },
      {
        "astId": 6617,
        "contract": "src/OpL2XERC20Bridge.sol:OpL2XERC20Bridge",
        "label": "__GAP",
        "offset": 0,
        "slot": "3",
        "type": "t_array(t_uint256)47_storage"
      },
      {
        "astId": 1768,
        "contract": "src/OpL2XERC20Bridge.sol:OpL2XERC20Bridge",
        "label": "__gap",
        "offset": 0,
        "slot": "50",
        "type": "t_array(t_uint256)50_storage"
      },
      {
        "astId": 346,
        "contract": "src/OpL2XERC20Bridge.sol:OpL2XERC20Bridge",
        "label": "_paused",
        "offset": 0,
        "slot": "100",
        "type": "t_bool"
      },
      {
        "astId": 451,
        "contract": "src/OpL2XERC20Bridge.sol:OpL2XERC20Bridge",
        "label": "__gap",
        "offset": 0,
        "slot": "101",
        "type": "t_array(t_uint256)49_storage"
      },
      {
        "astId": 4123,
        "contract": "src/OpL2XERC20Bridge.sol:OpL2XERC20Bridge",
        "label": "zoomer",
        "offset": 0,
        "slot": "150",
        "type": "t_contract(IXERC20)3874"
      },
      {
        "astId": 4131,
        "contract": "src/OpL2XERC20Bridge.sol:OpL2XERC20Bridge",
        "label": "l1Contract",
        "offset": 0,
        "slot": "151",
        "type": "t_address"
      },
      {
        "astId": 4304,
        "contract": "src/OpL2XERC20Bridge.sol:OpL2XERC20Bridge",
        "label": "__GAP",
        "offset": 0,
        "slot": "152",
        "type": "t_array(t_uint256)49_storage"
      }
    ],
    "types": {
      "t_address": {
        "encoding": "inplace",
        "label": "address",
        "numberOfBytes": "20"
      },
      "t_array(t_uint256)47_storage": {
        "base": "t_uint256",
        "encoding": "inplace",
        "label": "uint256[47]",
        "numberOfBytes": "1504"
      },
      "t_array(t_uint256)49_storage": {
        "base": "t_uint256",
        "encoding": "inplace",
        "label": "uint256[49]",
        "numberOfBytes": "1568"
      },
      "t_array(t_uint256)50_storage": {
        "base": "t_uint256",
        "encoding": "inplace",
        "label": "uint256[50]",
        "numberOfBytes": "1600"
      },
      "t_bool": {
        "encoding": "inplace",
        "label": "bool",
        "numberOfBytes": "1"
      },
      "t_contract(IXERC20)3874": {
        "encoding": "inplace",
        "label": "contract IXERC20",
        "numberOfBytes": "20"
      },
      "t_uint256": {
        "encoding": "inplace",
        "label": "uint256",
        "numberOfBytes": "32"
      },
      "t_uint8": {
        "encoding": "inplace",
        "label": "uint8",
        "numberOfBytes": "1"
      }
    }
  }
}