{
  "address": "0xb083c56A20c5508E0BcDa18ff15F3A3582a53C71",
  "abi": [
    {
      "inputs": [
        {
          "internalType": "address",
          "name": "_sender",
          "type": "address"
        }
      ],
      "name": "NotBridge",
      "type": "error"
    },
    {
      "inputs": [
        {
          "internalType": "address",
          "name": "_sourceContract",
          "type": "address"
        }
      ],
      "name": "WrongSourceContract",
      "type": "error"
    },
    {
      "anonymous": false,
      "inputs": [
        {
          "indexed": false,
          "internalType": "uint8",
          "name": "version",
          "type": "uint8"
        }
      ],
      "name": "Initialized",
      "type": "event"
    },
    {
      "anonymous": false,
      "inputs": [
        {
          "indexed": true,
          "internalType": "address",
          "name": "_from",
          "type": "address"
        },
        {
          "indexed": true,
          "internalType": "address",
          "name": "_to",
          "type": "address"
        },
        {
          "indexed": false,
          "internalType": "uint256",
          "name": "_amount",
          "type": "uint256"
        }
      ],
      "name": "MessageReceived",
      "type": "event"
    },
    {
      "anonymous": false,
      "inputs": [
        {
          "indexed": true,
          "internalType": "address",
          "name": "_from",
          "type": "address"
        },
        {
          "indexed": true,
          "internalType": "address",
          "name": "_to",
          "type": "address"
        },
        {
          "indexed": false,
          "internalType": "uint256",
          "name": "_amount",
          "type": "uint256"
        }
      ],
      "name": "MessageSent",
      "type": "event"
    },
    {
      "anonymous": false,
      "inputs": [
        {
          "indexed": true,
          "internalType": "address",
          "name": "proposedOwner",
          "type": "address"
        }
      ],
      "name": "OwnershipProposed",
      "type": "event"
    },
    {
      "anonymous": false,
      "inputs": [
        {
          "indexed": true,
          "internalType": "address",
          "name": "previousOwner",
          "type": "address"
        },
        {
          "indexed": true,
          "internalType": "address",
          "name": "newOwner",
          "type": "address"
        }
      ],
      "name": "OwnershipTransferred",
      "type": "event"
    },
    {
      "anonymous": false,
      "inputs": [
        {
          "indexed": false,
          "internalType": "address",
          "name": "account",
          "type": "address"
        }
      ],
      "name": "Paused",
      "type": "event"
    },
    {
      "anonymous": false,
      "inputs": [
        {
          "indexed": false,
          "internalType": "address",
          "name": "account",
          "type": "address"
        }
      ],
      "name": "Unpaused",
      "type": "event"
    },
    {
      "inputs": [],
      "name": "acceptProposedOwner",
      "outputs": [],
      "stateMutability": "nonpayable",
      "type": "function"
    },
    {
      "inputs": [
        {
          "internalType": "address",
          "name": "_to",
          "type": "address"
        },
        {
          "internalType": "uint256",
          "name": "_amount",
          "type": "uint256"
        }
      ],
      "name": "burnAndBridgeToL2",
      "outputs": [],
      "stateMutability": "nonpayable",
      "type": "function"
    },
    {
      "inputs": [],
      "name": "delay",
      "outputs": [
        {
          "internalType": "uint256",
          "name": "",
          "type": "uint256"
        }
      ],
      "stateMutability": "view",
      "type": "function"
    },
    {
      "inputs": [
        {
          "internalType": "address",
          "name": "_owner",
          "type": "address"
        },
        {
          "internalType": "address",
          "name": "_zoomer",
          "type": "address"
        },
        {
          "internalType": "address",
          "name": "_l1CrossDomainMessenger",
          "type": "address"
        }
      ],
      "name": "initialize",
      "outputs": [],
      "stateMutability": "nonpayable",
      "type": "function"
    },
    {
      "inputs": [],
      "name": "l1CrossDomainMessenger",
      "outputs": [
        {
          "internalType": "contract IOVML1CrossDomainMessenger",
          "name": "",
          "type": "address"
        }
      ],
      "stateMutability": "view",
      "type": "function"
    },
    {
      "inputs": [],
      "name": "l2Contract",
      "outputs": [
        {
          "internalType": "address",
          "name": "",
          "type": "address"
        }
      ],
      "stateMutability": "view",
      "type": "function"
    },
    {
      "inputs": [
        {
          "internalType": "address",
          "name": "_from",
          "type": "address"
        },
        {
          "internalType": "address",
          "name": "_to",
          "type": "address"
        },
        {
          "internalType": "uint256",
          "name": "_amount",
          "type": "uint256"
        }
      ],
      "name": "mintFromL2",
      "outputs": [],
      "stateMutability": "nonpayable",
      "type": "function"
    },
    {
      "inputs": [],
      "name": "owner",
      "outputs": [
        {
          "internalType": "address",
          "name": "",
          "type": "address"
        }
      ],
      "stateMutability": "view",
      "type": "function"
    },
    {
      "inputs": [],
      "name": "pause",
      "outputs": [],
      "stateMutability": "nonpayable",
      "type": "function"
    },
    {
      "inputs": [],
      "name": "paused",
      "outputs": [
        {
          "internalType": "bool",
          "name": "",
          "type": "bool"
        }
      ],
      "stateMutability": "view",
      "type": "function"
    },
    {
      "inputs": [
        {
          "internalType": "address",
          "name": "newlyProposed",
          "type": "address"
        }
      ],
      "name": "proposeNewOwner",
      "outputs": [],
      "stateMutability": "nonpayable",
      "type": "function"
    },
    {
      "inputs": [],
      "name": "proposed",
      "outputs": [
        {
          "internalType": "address",
          "name": "",
          "type": "address"
        }
      ],
      "stateMutability": "view",
      "type": "function"
    },
    {
      "inputs": [],
      "name": "proposedTimestamp",
      "outputs": [
        {
          "internalType": "uint256",
          "name": "",
          "type": "uint256"
        }
      ],
      "stateMutability": "view",
      "type": "function"
    },
    {
      "inputs": [],
      "name": "renounceOwnership",
      "outputs": [],
      "stateMutability": "nonpayable",
      "type": "function"
    },
    {
      "inputs": [],
      "name": "renounced",
      "outputs": [
        {
          "internalType": "bool",
          "name": "",
          "type": "bool"
        }
      ],
      "stateMutability": "view",
      "type": "function"
    },
    {
      "inputs": [
        {
          "internalType": "address",
          "name": "_l2Contract",
          "type": "address"
        }
      ],
      "name": "setL2Contract",
      "outputs": [],
      "stateMutability": "nonpayable",
      "type": "function"
    },
    {
      "inputs": [],
      "name": "zoomer",
      "outputs": [
        {
          "internalType": "contract IXERC20",
          "name": "",
          "type": "address"
        }
      ],
      "stateMutability": "view",
      "type": "function"
    }
  ],
  "transactionHash": "0x0114e3d3a7b665090b835e278a7a20b48ecd2dcde926103e619865b0b52f8dc9",
  "args": [],
  "numDeployments": 1,
  "solcInputHash": "c5ed92cfa7c216a7a1ade5e9599f4ac7",
  "bytecode": "0x608060405234801561001057600080fd5b50611137806100206000396000f3fe608060405234801561001057600080fd5b506004361061011b5760003560e01c80638da5cb5b116100b2578063b1f8100d11610081578063c5b350df11610066578063c5b350df14610230578063d1851c9214610238578063d232c2201461024957600080fd5b8063b1f8100d1461020a578063c0c53b8b1461021d57600080fd5b80638da5cb5b146101ba5780639b57b7d0146101d1578063a1549753146101e4578063a7119869146101f757600080fd5b80635c975abb116100ee5780635c975abb1461018a5780636a42b8f8146101a1578063715018a6146101aa5780638456cb59146101b257600080fd5b806332703881146101205780633aced149146101355780633ce37c5b146101655780633cf52ffb14610178575b600080fd5b61013361012e366004610f5c565b610262565b005b609854610148906001600160a01b031681565b6040516001600160a01b0390911681526020015b60405180910390f35b609654610148906001600160a01b031681565b6002545b60405190815260200161015c565b60645460ff165b604051901515815260200161015c565b62093a8061017c565b610133610428565b61013361056e565b6000546201000090046001600160a01b0316610148565b6101336101df366004610f88565b6105bf565b6101336101f2366004610fac565b610637565b609754610148906001600160a01b031681565b610133610218366004610f88565b6108a7565b61013361022b366004610fed565b6109a5565b610133610b16565b6001546001600160a01b0316610148565b6101916000546201000090046001600160a01b03161590565b61026a610bf8565b6096546040517f9dc29fac000000000000000000000000000000000000000000000000000000008152336004820152602481018390526001600160a01b0390911690639dc29fac90604401600060405180830381600087803b1580156102cf57600080fd5b505af11580156102e3573d6000803e3d6000fd5b50506097546098546040513360248201526001600160a01b038781166044830152606482018790529283169450633dbb202b935091169060840160408051601f198184030181529181526020820180517bffffffffffffffffffffffffffffffffffffffffffffffffffffffff167f9ccfb38c000000000000000000000000000000000000000000000000000000001790525160e084901b7fffffffff000000000000000000000000000000000000000000000000000000001681526103b2929190620f424090600401611038565b600060405180830381600087803b1580156103cc57600080fd5b505af11580156103e0573d6000803e3d6000fd5b50506040518381526001600160a01b03851692503391507f8e3ce0a37f42bfb0e85f8f02c440ff2843d1182d7f1fce9174f7980e5e9d130c9060200160405180910390a35050565b6000546201000090046001600160a01b031633146104765760405162461bcd60e51b815260206004820152600660248201526510b7bbb732b960d11b60448201526064015b60405180910390fd5b6000600254116104c85760405162461bcd60e51b815260206004820152600860248201527f2173746172746564000000000000000000000000000000000000000000000000604482015260640161046d565b62093a80600254426104da91906110a4565b116105125760405162461bcd60e51b815260206004820152600860248201526708595b185c1cd95960c21b604482015260640161046d565b6001546001600160a01b0316156105575760405162461bcd60e51b8152602060048201526009602482015268085c1c9bdc1bdcd95960ba1b604482015260640161046d565b60015461056c906001600160a01b0316610c4b565b565b6000546201000090046001600160a01b031633146105b75760405162461bcd60e51b815260206004820152600660248201526510b7bbb732b960d11b604482015260640161046d565b61056c610cc1565b6000546201000090046001600160a01b031633146106085760405162461bcd60e51b815260206004820152600660248201526510b7bbb732b960d11b604482015260640161046d565b6098805473ffffffffffffffffffffffffffffffffffffffff19166001600160a01b0392909216919091179055565b61063f610bf8565b6097546001600160a01b03163314610685576040517ff91b419e00000000000000000000000000000000000000000000000000000000815233600482015260240161046d565b609854609754604080517f6e296e4500000000000000000000000000000000000000000000000000000000815290516001600160a01b039384169390921691636e296e45916004808201926020929091908290030181865afa1580156106ef573d6000803e3d6000fd5b505050506040513d601f19601f8201168201806040525081019061071391906110e4565b6001600160a01b0316146107d657609760009054906101000a90046001600160a01b03166001600160a01b0316636e296e456040518163ffffffff1660e01b8152600401602060405180830381865afa158015610774573d6000803e3d6000fd5b505050506040513d601f19601f8201168201806040525081019061079891906110e4565b6040517f1145301f0000000000000000000000000000000000000000000000000000000081526001600160a01b03909116600482015260240161046d565b6096546040517f40c10f190000000000000000000000000000000000000000000000000000000081526001600160a01b03848116600483015260248201849052909116906340c10f1990604401600060405180830381600087803b15801561083d57600080fd5b505af1158015610851573d6000803e3d6000fd5b50505050816001600160a01b0316836001600160a01b03167fe355996e2996142ac85dc67216bbb3fc359221d123a11cdfeee89bc680e997088360405161089a91815260200190565b60405180910390a3505050565b6000546201000090046001600160a01b031633146108f05760405162461bcd60e51b815260206004820152600660248201526510b7bbb732b960d11b604482015260640161046d565b6001546001600160a01b03828116911614158061091457506001600160a01b038116155b61094c5760405162461bcd60e51b8152602060048201526009602482015268085c1c9bdc1bdcd95960ba1b604482015260640161046d565b6000546001600160a01b038083166201000090920416036109995760405162461bcd60e51b8152602060048201526007602482015266216368616e676560c81b604482015260640161046d565b6109a281610d1b565b50565b600054610100900460ff16158080156109c55750600054600160ff909116105b806109df5750303b1580156109df575060005460ff166001145b610a515760405162461bcd60e51b815260206004820152602e60248201527f496e697469616c697a61626c653a20636f6e747261637420697320616c72656160448201527f647920696e697469616c697a6564000000000000000000000000000000000000606482015260840161046d565b6000805460ff191660011790558015610a74576000805461ff0019166101001790555b610a7c610d76565b610a84610de9565b610a8d84610c4b565b609680546001600160a01b0380861673ffffffffffffffffffffffffffffffffffffffff199283161790925560978054928516929091169190911790558015610b10576000805461ff0019169055604051600181527f7f26b83ff96e1f2b6a682f133852f6798a09c465da95921460cefb38474024989060200160405180910390a15b50505050565b6001546001600160a01b03163314610b5c5760405162461bcd60e51b8152602060048201526009602482015268085c1c9bdc1bdcd95960ba1b604482015260640161046d565b6001546000546001600160a01b039182166201000090910490911603610bae5760405162461bcd60e51b8152602060048201526007602482015266216368616e676560c81b604482015260640161046d565b62093a8060025442610bc091906110a4565b116105575760405162461bcd60e51b815260206004820152600860248201526708595b185c1cd95960c21b604482015260640161046d565b60645460ff161561056c5760405162461bcd60e51b815260206004820152601060248201527f5061757361626c653a2070617573656400000000000000000000000000000000604482015260640161046d565b600080546001600160a01b03838116620100008181027fffffffffffffffffffff0000000000000000000000000000000000000000ffff8516178555600285905560405193049190911692909183917f8be0079c531659141344cd1fd0a4f28419497f9722a3daafe3b4186f6b6457e091a35050565b610cc9610bf8565b6064805460ff191660011790557f62e78cea01bee320cd4e420270b5ea74000d11b0c9f74754ebdbfc544b05a258610cfe3390565b6040516001600160a01b03909116815260200160405180910390a1565b426002556001805473ffffffffffffffffffffffffffffffffffffffff19166001600160a01b0383169081179091556040517f6ab4d119f23076e8ad491bc65ce85f017fb0591dce08755ba8591059cc51737a90600090a250565b600054610100900460ff16610de15760405162461bcd60e51b815260206004820152602b60248201527f496e697469616c697a61626c653a20636f6e7472616374206973206e6f74206960448201526a6e697469616c697a696e6760a81b606482015260840161046d565b61056c610e5c565b600054610100900460ff16610e545760405162461bcd60e51b815260206004820152602b60248201527f496e697469616c697a61626c653a20636f6e7472616374206973206e6f74206960448201526a6e697469616c697a696e6760a81b606482015260840161046d565b61056c610ed0565b600054610100900460ff16610ec75760405162461bcd60e51b815260206004820152602b60248201527f496e697469616c697a61626c653a20636f6e7472616374206973206e6f74206960448201526a6e697469616c697a696e6760a81b606482015260840161046d565b61056c33610c4b565b600054610100900460ff16610f3b5760405162461bcd60e51b815260206004820152602b60248201527f496e697469616c697a61626c653a20636f6e7472616374206973206e6f74206960448201526a6e697469616c697a696e6760a81b606482015260840161046d565b6064805460ff19169055565b6001600160a01b03811681146109a257600080fd5b60008060408385031215610f6f57600080fd5b8235610f7a81610f47565b946020939093013593505050565b600060208284031215610f9a57600080fd5b8135610fa581610f47565b9392505050565b600080600060608486031215610fc157600080fd5b8335610fcc81610f47565b92506020840135610fdc81610f47565b929592945050506040919091013590565b60008060006060848603121561100257600080fd5b833561100d81610f47565b9250602084013561101d81610f47565b9150604084013561102d81610f47565b809150509250925092565b6001600160a01b038416815260006020606081840152845180606085015260005b8181101561107557868101830151858201608001528201611059565b506000608082860101526080601f19601f8301168501019250505063ffffffff83166040830152949350505050565b818103818111156110de577f4e487b7100000000000000000000000000000000000000000000000000000000600052601160045260246000fd5b92915050565b6000602082840312156110f657600080fd5b8151610fa581610f4756fea2646970667358221220fbd8518878759bb314c2d1ba29aff80670d5e75dac40d38376a79d3cfe0e9cee64736f6c63430008130033",
  "devdoc": {
    "events": {
      "Initialized(uint8)": {
        "details": "Triggered when the contract has been initialized or reinitialized."
      },
      "Paused(address)": {
        "details": "Emitted when the pause is triggered by `account`."
      },
      "Unpaused(address)": {
        "details": "Emitted when the pause is lifted by `account`."
      }
    },
    "kind": "dev",
    "methods": {
      "paused()": {
        "details": "Returns true if the contract is paused, and false otherwise."
      }
    },
    "version": 1
  },
  "userdoc": {
    "kind": "user",
    "methods": {
      "acceptProposedOwner()": {
        "notice": "Transfers ownership of the contract to a new account (`newOwner`). Can only be called by the current owner."
      },
      "delay()": {
        "notice": "Returns the delay period before a new owner can be accepted."
      },
      "owner()": {
        "notice": "Returns the address of the current owner."
      },
      "proposeNewOwner(address)": {
        "notice": "Sets the timestamp for an owner to be proposed, and sets the newly proposed owner as step 1 in a 2-step process"
      },
      "proposed()": {
        "notice": "Returns the address of the proposed owner."
      },
      "proposedTimestamp()": {
        "notice": "Returns the address of the proposed owner."
      },
      "renounceOwnership()": {
        "notice": "Renounces ownership of the contract after a delay"
      },
      "renounced()": {
        "notice": "Indicates if the ownership has been renounced() by checking if current owner is address(0)"
      }
    },
    "version": 1
  },
  "storageLayout": {
    "storage": [
      {
        "astId": 163,
        "contract": "src/OpL1XERC20Bridge.sol:OpL1XERC20Bridge",
        "label": "_initialized",
        "offset": 0,
        "slot": "0",
        "type": "t_uint8"
      },
      {
        "astId": 166,
        "contract": "src/OpL1XERC20Bridge.sol:OpL1XERC20Bridge",
        "label": "_initializing",
        "offset": 1,
        "slot": "0",
        "type": "t_bool"
      },
      {
        "astId": 6343,
        "contract": "src/OpL1XERC20Bridge.sol:OpL1XERC20Bridge",
        "label": "_owner",
        "offset": 2,
        "slot": "0",
        "type": "t_address"
      },
      {
        "astId": 6345,
        "contract": "src/OpL1XERC20Bridge.sol:OpL1XERC20Bridge",
        "label": "_proposed",
        "offset": 0,
        "slot": "1",
        "type": "t_address"
      },
      {
        "astId": 6347,
        "contract": "src/OpL1XERC20Bridge.sol:OpL1XERC20Bridge",
        "label": "_proposedOwnershipTimestamp",
        "offset": 0,
        "slot": "2",
        "type": "t_uint256"
      },
      {
        "astId": 6617,
        "contract": "src/OpL1XERC20Bridge.sol:OpL1XERC20Bridge",
        "label": "__GAP",
        "offset": 0,
        "slot": "3",
        "type": "t_array(t_uint256)47_storage"
      },
      {
        "astId": 1768,
        "contract": "src/OpL1XERC20Bridge.sol:OpL1XERC20Bridge",
        "label": "__gap",
        "offset": 0,
        "slot": "50",
        "type": "t_array(t_uint256)50_storage"
      },
      {
        "astId": 346,
        "contract": "src/OpL1XERC20Bridge.sol:OpL1XERC20Bridge",
        "label": "_paused",
        "offset": 0,
        "slot": "100",
        "type": "t_bool"
      },
      {
        "astId": 451,
        "contract": "src/OpL1XERC20Bridge.sol:OpL1XERC20Bridge",
        "label": "__gap",
        "offset": 0,
        "slot": "101",
        "type": "t_array(t_uint256)49_storage"
      },
      {
        "astId": 3906,
        "contract": "src/OpL1XERC20Bridge.sol:OpL1XERC20Bridge",
        "label": "zoomer",
        "offset": 0,
        "slot": "150",
        "type": "t_contract(IXERC20)3874"
      },
      {
        "astId": 3909,
        "contract": "src/OpL1XERC20Bridge.sol:OpL1XERC20Bridge",
        "label": "l1CrossDomainMessenger",
        "offset": 0,
        "slot": "151",
        "type": "t_contract(IOVML1CrossDomainMessenger)3899"
      },
      {
        "astId": 3911,
        "contract": "src/OpL1XERC20Bridge.sol:OpL1XERC20Bridge",
        "label": "l2Contract",
        "offset": 0,
        "slot": "152",
        "type": "t_address"
      },
      {
        "astId": 4092,
        "contract": "src/OpL1XERC20Bridge.sol:OpL1XERC20Bridge",
        "label": "__GAP",
        "offset": 0,
        "slot": "153",
        "type": "t_array(t_uint256)49_storage"
      }
    ],
    "types": {
      "t_address": {
        "encoding": "inplace",
        "label": "address",
        "numberOfBytes": "20"
      },
      "t_array(t_uint256)47_storage": {
        "base": "t_uint256",
        "encoding": "inplace",
        "label": "uint256[47]",
        "numberOfBytes": "1504"
      },
      "t_array(t_uint256)49_storage": {
        "base": "t_uint256",
        "encoding": "inplace",
        "label": "uint256[49]",
        "numberOfBytes": "1568"
      },
      "t_array(t_uint256)50_storage": {
        "base": "t_uint256",
        "encoding": "inplace",
        "label": "uint256[50]",
        "numberOfBytes": "1600"
      },
      "t_bool": {
        "encoding": "inplace",
        "label": "bool",
        "numberOfBytes": "1"
      },
      "t_contract(IOVML1CrossDomainMessenger)3899": {
        "encoding": "inplace",
        "label": "contract IOVML1CrossDomainMessenger",
        "numberOfBytes": "20"
      },
      "t_contract(IXERC20)3874": {
        "encoding": "inplace",
        "label": "contract IXERC20",
        "numberOfBytes": "20"
      },
      "t_uint256": {
        "encoding": "inplace",
        "label": "uint256",
        "numberOfBytes": "32"
      },
      "t_uint8": {
        "encoding": "inplace",
        "label": "uint8",
        "numberOfBytes": "1"
      }
    }
  }
}