{
  "address": "0x9f3601a32C5B4022eBd2C099210a359bCF68d112",
  "abi": [
    {
      "inputs": [],
      "name": "IXERC20Lockbox_Native",
      "type": "error"
    },
    {
      "inputs": [],
      "name": "IXERC20Lockbox_NotNative",
      "type": "error"
    },
    {
      "inputs": [],
      "name": "IXERC20Lockbox_WithdrawFailed",
      "type": "error"
    },
    {
      "anonymous": false,
      "inputs": [
        {
          "indexed": false,
          "internalType": "address",
          "name": "_sender",
          "type": "address"
        },
        {
          "indexed": false,
          "internalType": "uint256",
          "name": "_amount",
          "type": "uint256"
        }
      ],
      "name": "Deposit",
      "type": "event"
    },
    {
      "anonymous": false,
      "inputs": [
        {
          "indexed": false,
          "internalType": "uint8",
          "name": "version",
          "type": "uint8"
        }
      ],
      "name": "Initialized",
      "type": "event"
    },
    {
      "anonymous": false,
      "inputs": [
        {
          "indexed": false,
          "internalType": "address",
          "name": "_sender",
          "type": "address"
        },
        {
          "indexed": false,
          "internalType": "uint256",
          "name": "_amount",
          "type": "uint256"
        }
      ],
      "name": "Withdraw",
      "type": "event"
    },
    {
      "inputs": [],
      "name": "ERC20",
      "outputs": [
        {
          "internalType": "contract IERC20",
          "name": "",
          "type": "address"
        }
      ],
      "stateMutability": "view",
      "type": "function"
    },
    {
      "inputs": [],
      "name": "IS_NATIVE",
      "outputs": [
        {
          "internalType": "bool",
          "name": "",
          "type": "bool"
        }
      ],
      "stateMutability": "view",
      "type": "function"
    },
    {
      "inputs": [],
      "name": "OWNER",
      "outputs": [
        {
          "internalType": "address",
          "name": "",
          "type": "address"
        }
      ],
      "stateMutability": "view",
      "type": "function"
    },
    {
      "inputs": [],
      "name": "OpL1XERC20BRIDGE",
      "outputs": [
        {
          "internalType": "contract OpL1XERC20Bridge",
          "name": "",
          "type": "address"
        }
      ],
      "stateMutability": "view",
      "type": "function"
    },
    {
      "inputs": [],
      "name": "XERC20",
      "outputs": [
        {
          "internalType": "contract IXERC20",
          "name": "",
          "type": "address"
        }
      ],
      "stateMutability": "view",
      "type": "function"
    },
    {
      "inputs": [
        {
          "internalType": "uint256",
          "name": "_amount",
          "type": "uint256"
        }
      ],
      "name": "deposit",
      "outputs": [],
      "stateMutability": "nonpayable",
      "type": "function"
    },
    {
      "inputs": [],
      "name": "deposit",
      "outputs": [],
      "stateMutability": "payable",
      "type": "function"
    },
    {
      "inputs": [
        {
          "internalType": "uint256",
          "name": "_amount",
          "type": "uint256"
        }
      ],
      "name": "depositAndBridgeToL2",
      "outputs": [],
      "stateMutability": "nonpayable",
      "type": "function"
    },
    {
      "inputs": [
        {
          "internalType": "address",
          "name": "_xerc20",
          "type": "address"
        },
        {
          "internalType": "address",
          "name": "_erc20",
          "type": "address"
        },
        {
          "internalType": "bool",
          "name": "_isNative",
          "type": "bool"
        }
      ],
      "name": "initialize",
      "outputs": [],
      "stateMutability": "nonpayable",
      "type": "function"
    },
    {
      "inputs": [
        {
          "internalType": "bytes[]",
          "name": "data",
          "type": "bytes[]"
        }
      ],
      "name": "multicall",
      "outputs": [
        {
          "internalType": "bytes[]",
          "name": "results",
          "type": "bytes[]"
        }
      ],
      "stateMutability": "nonpayable",
      "type": "function"
    },
    {
      "inputs": [
        {
          "internalType": "address",
          "name": "_opL1XERC20Bridge",
          "type": "address"
        }
      ],
      "name": "setOpL1XERC20Bridge",
      "outputs": [],
      "stateMutability": "nonpayable",
      "type": "function"
    },
    {
      "inputs": [
        {
          "internalType": "uint256",
          "name": "_amount",
          "type": "uint256"
        }
      ],
      "name": "withdraw",
      "outputs": [],
      "stateMutability": "nonpayable",
      "type": "function"
    },
    {
      "stateMutability": "payable",
      "type": "receive"
    }
  ],
  "transactionHash": "0xf0c2dfeebb31495ffe8525cc0b42e12a40dca01de672a78218cdf21d67852607",
  "args": [],
  "numDeployments": 1,
  "solcInputHash": "4caa840adf37fbae8611345d15115e95",
  "bytecode": "0x608060405234801561001057600080fd5b5061118c806100206000396000f3fe6080604052600436106100cb5760003560e01c8063b20a0fb911610074578063d0e30db01161004e578063d0e30db01461023a578063e4bbb5a814610242578063f4a70a381461026257600080fd5b8063b20a0fb9146101da578063b6b55f25146101fa578063cc4aa2041461021a57600080fd5b8063479d3976116100a5578063479d39761461015c57806373be8f201461018d578063ac9650d8146101ad57600080fd5b8063117803e3146100df57806327cf45f41461011c5780632e1a7d4d1461013c57600080fd5b366100da576100d8610282565b005b600080fd5b3480156100eb57600080fd5b506035546100ff906001600160a01b031681565b6040516001600160a01b0390911681526020015b60405180910390f35b34801561012857600080fd5b506036546100ff906001600160a01b031681565b34801561014857600080fd5b506100d8610157366004610e73565b610363565b34801561016857600080fd5b5060345461017d90600160a01b900460ff1681565b6040519015158152602001610113565b34801561019957600080fd5b506100d86101a8366004610e73565b6104d0565b3480156101b957600080fd5b506101cd6101c8366004610e8c565b61062c565b6040516101139190610f51565b3480156101e657600080fd5b506033546100ff906001600160a01b031681565b34801561020657600080fd5b506100d8610215366004610e73565b610721565b34801561022657600080fd5b506034546100ff906001600160a01b031681565b6100d8610282565b34801561024e57600080fd5b506100d861025d366004610fe0565b61079b565b34801561026e57600080fd5b506100d861027d366004611027565b61092b565b603454600160a01b900460ff166102c5576040517f8467cb4b00000000000000000000000000000000000000000000000000000000815260040160405180910390fd5b6033546040516340c10f1960e01b81523360048201523460248201526001600160a01b03909116906340c10f1990604401600060405180830381600087803b15801561031057600080fd5b505af1158015610324573d6000803e3d6000fd5b5050604080513381523460208201527fe1fffcc4923d04b559f4d29a8bfc6cda04eb5b0d3c460751c2402c5c5cc9109c935001905060405180910390a1565b6033546040517f9dc29fac000000000000000000000000000000000000000000000000000000008152336004820152602481018390526001600160a01b0390911690639dc29fac90604401600060405180830381600087803b1580156103c857600080fd5b505af11580156103dc573d6000803e3d6000fd5b5050603454600160a01b900460ff1615915061047c905057604051600090339083908381818185875af1925050503d8060008114610436576040519150601f19603f3d011682016040523d82523d6000602084013e61043b565b606091505b5050905080610476576040517fab8a5c3400000000000000000000000000000000000000000000000000000000815260040160405180910390fd5b50610493565b603454610493906001600160a01b031633836109bd565b60408051338152602081018390527f884edad9ce6fa2440d8a54cc123490eb96d2768479d49ff9c7366125a942436491015b60405180910390a150565b603454600160a01b900460ff16156104fb57604051630237493d60e51b815260040160405180910390fd5b603454610513906001600160a01b0316333084610a6b565b6033546040516340c10f1960e01b8152306004820152602481018390526001600160a01b03909116906340c10f1990604401600060405180830381600087803b15801561055f57600080fd5b505af1158015610573573d6000803e3d6000fd5b50506036546040517f32703881000000000000000000000000000000000000000000000000000000008152336004820152602481018590526001600160a01b039091169250633270388191506044015b600060405180830381600087803b1580156105dd57600080fd5b505af11580156105f1573d6000803e3d6000fd5b505060408051338152602081018590527fe1fffcc4923d04b559f4d29a8bfc6cda04eb5b0d3c460751c2402c5c5cc9109c93500190506104c5565b60608167ffffffffffffffff81111561064757610647611042565b60405190808252806020026020018201604052801561067a57816020015b60608152602001906001900390816106655790505b50905060005b8281101561071a576106ea3085858481811061069e5761069e611058565b90506020028101906106b0919061106e565b8080601f016020809104026020016040519081016040528093929190818152602001838380828437600092019190915250610abc92505050565b8282815181106106fc576106fc611058565b60200260200101819052508080610712906110bc565b915050610680565b5092915050565b603454600160a01b900460ff161561074c57604051630237493d60e51b815260040160405180910390fd5b603454610764906001600160a01b0316333084610a6b565b6033546040516340c10f1960e01b8152336004820152602481018390526001600160a01b03909116906340c10f19906044016105c3565b600054610100900460ff16158080156107bb5750600054600160ff909116105b806107d55750303b1580156107d5575060005460ff166001145b61084c5760405162461bcd60e51b815260206004820152602e60248201527f496e697469616c697a61626c653a20636f6e747261637420697320616c72656160448201527f647920696e697469616c697a656400000000000000000000000000000000000060648201526084015b60405180910390fd5b6000805460ff19166001179055801561086f576000805461ff0019166101001790555b610877610ae8565b6033805473ffffffffffffffffffffffffffffffffffffffff19166001600160a01b0386811691909117909155603480549185167fffffffffffffffffffffff00000000000000000000000000000000000000000090921691909117600160a01b841515021790558015610925576000805461ff0019169055604051600181527f7f26b83ff96e1f2b6a682f133852f6798a09c465da95921460cefb38474024989060200160405180910390a15b50505050565b73fadede2cfbfa7443497acacf76cfc4fe59112dbb331461098e5760405162461bcd60e51b815260206004820152601860248201527f5845524332304c6f636b626f783a206e6f74206f776e657200000000000000006044820152606401610843565b6036805473ffffffffffffffffffffffffffffffffffffffff19166001600160a01b0392909216919091179055565b6040516001600160a01b038316602482015260448101829052610a669084907fa9059cbb00000000000000000000000000000000000000000000000000000000906064015b60408051601f198184030181529190526020810180517bffffffffffffffffffffffffffffffffffffffffffffffffffffffff167fffffffff0000000000000000000000000000000000000000000000000000000090931692909217909152610b67565b505050565b6040516001600160a01b03808516602483015283166044820152606481018290526109259085907f23b872dd0000000000000000000000000000000000000000000000000000000090608401610a02565b6060610ae1838360405180606001604052806027815260200161113060279139610c4f565b9392505050565b600054610100900460ff16610b655760405162461bcd60e51b815260206004820152602b60248201527f496e697469616c697a61626c653a20636f6e7472616374206973206e6f74206960448201527f6e697469616c697a696e670000000000000000000000000000000000000000006064820152608401610843565b565b6000610bbc826040518060400160405280602081526020017f5361666545524332303a206c6f772d6c6576656c2063616c6c206661696c6564815250856001600160a01b0316610cc79092919063ffffffff16565b9050805160001480610bdd575080806020019051810190610bdd91906110e3565b610a665760405162461bcd60e51b815260206004820152602a60248201527f5361666545524332303a204552433230206f7065726174696f6e20646964206e60448201527f6f742073756363656564000000000000000000000000000000000000000000006064820152608401610843565b6060600080856001600160a01b031685604051610c6c9190611100565b600060405180830381855af49150503d8060008114610ca7576040519150601f19603f3d011682016040523d82523d6000602084013e610cac565b606091505b5091509150610cbd86838387610cde565b9695505050505050565b6060610cd68484600085610d57565b949350505050565b60608315610d4d578251600003610d46576001600160a01b0385163b610d465760405162461bcd60e51b815260206004820152601d60248201527f416464726573733a2063616c6c20746f206e6f6e2d636f6e74726163740000006044820152606401610843565b5081610cd6565b610cd68383610e49565b606082471015610dcf5760405162461bcd60e51b815260206004820152602660248201527f416464726573733a20696e73756666696369656e742062616c616e636520666f60448201527f722063616c6c00000000000000000000000000000000000000000000000000006064820152608401610843565b600080866001600160a01b03168587604051610deb9190611100565b60006040518083038185875af1925050503d8060008114610e28576040519150601f19603f3d011682016040523d82523d6000602084013e610e2d565b606091505b5091509150610e3e87838387610cde565b979650505050505050565b815115610e595781518083602001fd5b8060405162461bcd60e51b8152600401610843919061111c565b600060208284031215610e8557600080fd5b5035919050565b60008060208385031215610e9f57600080fd5b823567ffffffffffffffff80821115610eb757600080fd5b818501915085601f830112610ecb57600080fd5b813581811115610eda57600080fd5b8660208260051b8501011115610eef57600080fd5b60209290920196919550909350505050565b60005b83811015610f1c578181015183820152602001610f04565b50506000910152565b60008151808452610f3d816020860160208601610f01565b601f01601f19169290920160200192915050565b6000602080830181845280855180835260408601915060408160051b870101925083870160005b82811015610fa657603f19888603018452610f94858351610f25565b94509285019290850190600101610f78565b5092979650505050505050565b80356001600160a01b0381168114610fca57600080fd5b919050565b8015158114610fdd57600080fd5b50565b600080600060608486031215610ff557600080fd5b610ffe84610fb3565b925061100c60208501610fb3565b9150604084013561101c81610fcf565b809150509250925092565b60006020828403121561103957600080fd5b610ae182610fb3565b634e487b7160e01b600052604160045260246000fd5b634e487b7160e01b600052603260045260246000fd5b6000808335601e1984360301811261108557600080fd5b83018035915067ffffffffffffffff8211156110a057600080fd5b6020019150368190038213156110b557600080fd5b9250929050565b6000600182016110dc57634e487b7160e01b600052601160045260246000fd5b5060010190565b6000602082840312156110f557600080fd5b8151610ae181610fcf565b60008251611112818460208701610f01565b9190910192915050565b602081526000610ae16020830184610f2556fe416464726573733a206c6f772d6c6576656c2064656c65676174652063616c6c206661696c6564a264697066735822122033d5e8da62b417a9599339f15860df823c79ace06aeb6ae7a16fc9b97679b96964736f6c63430008130033",
  "devdoc": {
    "events": {
      "Initialized(uint8)": {
        "details": "Triggered when the contract has been initialized or reinitialized."
      }
    },
    "kind": "dev",
    "methods": {
      "deposit(uint256)": {
        "params": {
          "_amount": "The amount of tokens to deposit"
        }
      },
      "initialize(address,address,bool)": {
        "params": {
          "_erc20": "The address of the ERC20 contract",
          "_xerc20": "The address of the XERC20 contract"
        }
      },
      "multicall(bytes[])": {
        "custom:oz-upgrades-unsafe-allow-reachable": "delegatecall",
        "details": "Receives and executes a batch of function calls on this contract."
      },
      "withdraw(uint256)": {
        "params": {
          "_amount": "The amount of tokens to withdraw"
        }
      }
    },
    "version": 1
  },
  "userdoc": {
    "errors": {
      "IXERC20Lockbox_Native()": [
        {
          "notice": "Reverts when a user tries to deposit non-native tokens on a native lockbox"
        }
      ],
      "IXERC20Lockbox_NotNative()": [
        {
          "notice": "Reverts when a user tries to deposit native tokens on a non-native lockbox"
        }
      ],
      "IXERC20Lockbox_WithdrawFailed()": [
        {
          "notice": "Reverts when a user tries to withdraw and the call fails"
        }
      ]
    },
    "events": {
      "Deposit(address,uint256)": {
        "notice": "Emitted when tokens are deposited into the lockbox"
      },
      "Withdraw(address,uint256)": {
        "notice": "Emitted when tokens are withdrawn from the lockbox"
      }
    },
    "kind": "user",
    "methods": {
      "ERC20()": {
        "notice": "The ERC20 token of this contract"
      },
      "IS_NATIVE()": {
        "notice": "Whether the ERC20 token is the native gas token of this chain"
      },
      "XERC20()": {
        "notice": "The XERC20 token of this contract"
      },
      "deposit()": {
        "notice": "Deposit native tokens into the lockbox"
      },
      "deposit(uint256)": {
        "notice": "Deposit ERC20 tokens into the lockbox"
      },
      "initialize(address,address,bool)": {
        "notice": "Constructor"
      },
      "withdraw(uint256)": {
        "notice": "Withdraw ERC20 tokens from the lockbox"
      }
    },
    "version": 1
  },
  "storageLayout": {
    "storage": [
      {
        "astId": 6,
        "contract": "src/XERC20Lockbox.sol:XERC20Lockbox",
        "label": "_initialized",
        "offset": 0,
        "slot": "0",
        "type": "t_uint8"
      },
      {
        "astId": 9,
        "contract": "src/XERC20Lockbox.sol:XERC20Lockbox",
        "label": "_initializing",
        "offset": 1,
        "slot": "0",
        "type": "t_bool"
      },
      {
        "astId": 572,
        "contract": "src/XERC20Lockbox.sol:XERC20Lockbox",
        "label": "__gap",
        "offset": 0,
        "slot": "1",
        "type": "t_array(t_uint256)50_storage"
      },
      {
        "astId": 2204,
        "contract": "src/XERC20Lockbox.sol:XERC20Lockbox",
        "label": "XERC20",
        "offset": 0,
        "slot": "51",
        "type": "t_contract(IXERC20)2130"
      },
      {
        "astId": 2208,
        "contract": "src/XERC20Lockbox.sol:XERC20Lockbox",
        "label": "ERC20",
        "offset": 0,
        "slot": "52",
        "type": "t_contract(IERC20)1238"
      },
      {
        "astId": 2211,
        "contract": "src/XERC20Lockbox.sol:XERC20Lockbox",
        "label": "IS_NATIVE",
        "offset": 20,
        "slot": "52",
        "type": "t_bool"
      },
      {
        "astId": 2213,
        "contract": "src/XERC20Lockbox.sol:XERC20Lockbox",
        "label": "OWNER",
        "offset": 0,
        "slot": "53",
        "type": "t_address"
      },
      {
        "astId": 2216,
        "contract": "src/XERC20Lockbox.sol:XERC20Lockbox",
        "label": "OpL1XERC20BRIDGE",
        "offset": 0,
        "slot": "54",
        "type": "t_contract(OpL1XERC20Bridge)2190"
      },
      {
        "astId": 2449,
        "contract": "src/XERC20Lockbox.sol:XERC20Lockbox",
        "label": "__GAP",
        "offset": 0,
        "slot": "55",
        "type": "t_array(t_uint256)49_storage"
      }
    ],
    "types": {
      "t_address": {
        "encoding": "inplace",
        "label": "address",
        "numberOfBytes": "20"
      },
      "t_array(t_uint256)49_storage": {
        "base": "t_uint256",
        "encoding": "inplace",
        "label": "uint256[49]",
        "numberOfBytes": "1568"
      },
      "t_array(t_uint256)50_storage": {
        "base": "t_uint256",
        "encoding": "inplace",
        "label": "uint256[50]",
        "numberOfBytes": "1600"
      },
      "t_bool": {
        "encoding": "inplace",
        "label": "bool",
        "numberOfBytes": "1"
      },
      "t_contract(IERC20)1238": {
        "encoding": "inplace",
        "label": "contract IERC20",
        "numberOfBytes": "20"
      },
      "t_contract(IXERC20)2130": {
        "encoding": "inplace",
        "label": "contract IXERC20",
        "numberOfBytes": "20"
      },
      "t_contract(OpL1XERC20Bridge)2190": {
        "encoding": "inplace",
        "label": "contract OpL1XERC20Bridge",
        "numberOfBytes": "20"
      },
      "t_uint256": {
        "encoding": "inplace",
        "label": "uint256",
        "numberOfBytes": "32"
      },
      "t_uint8": {
        "encoding": "inplace",
        "label": "uint8",
        "numberOfBytes": "1"
      }
    }
  }
}