{
  "address": "0x3859C00fAF6c9E5948c1f7cB202e5588cA309b70",
  "abi": [
    {
      "inputs": [],
      "name": "IXERC20_NotFactory",
      "type": "error"
    },
    {
      "inputs": [],
      "name": "IXERC20_NotHighEnoughLimits",
      "type": "error"
    },
    {
      "anonymous": false,
      "inputs": [
        {
          "indexed": true,
          "internalType": "address",
          "name": "owner",
          "type": "address"
        },
        {
          "indexed": true,
          "internalType": "address",
          "name": "spender",
          "type": "address"
        },
        {
          "indexed": false,
          "internalType": "uint256",
          "name": "value",
          "type": "uint256"
        }
      ],
      "name": "Approval",
      "type": "event"
    },
    {
      "anonymous": false,
      "inputs": [
        {
          "indexed": false,
          "internalType": "uint256",
          "name": "_mintingLimit",
          "type": "uint256"
        },
        {
          "indexed": false,
          "internalType": "uint256",
          "name": "_burningLimit",
          "type": "uint256"
        },
        {
          "indexed": true,
          "internalType": "address",
          "name": "_bridge",
          "type": "address"
        }
      ],
      "name": "BridgeLimitsSet",
      "type": "event"
    },
    {
      "anonymous": false,
      "inputs": [],
      "name": "EIP712DomainChanged",
      "type": "event"
    },
    {
      "anonymous": false,
      "inputs": [
        {
          "indexed": false,
          "internalType": "uint8",
          "name": "version",
          "type": "uint8"
        }
      ],
      "name": "Initialized",
      "type": "event"
    },
    {
      "anonymous": false,
      "inputs": [
        {
          "indexed": false,
          "internalType": "address",
          "name": "_lockbox",
          "type": "address"
        }
      ],
      "name": "LockboxSet",
      "type": "event"
    },
    {
      "anonymous": false,
      "inputs": [
        {
          "indexed": true,
          "internalType": "address",
          "name": "previousOwner",
          "type": "address"
        },
        {
          "indexed": true,
          "internalType": "address",
          "name": "newOwner",
          "type": "address"
        }
      ],
      "name": "OwnershipTransferred",
      "type": "event"
    },
    {
      "anonymous": false,
      "inputs": [
        {
          "indexed": true,
          "internalType": "address",
          "name": "from",
          "type": "address"
        },
        {
          "indexed": true,
          "internalType": "address",
          "name": "to",
          "type": "address"
        },
        {
          "indexed": false,
          "internalType": "uint256",
          "name": "value",
          "type": "uint256"
        }
      ],
      "name": "Transfer",
      "type": "event"
    },
    {
      "inputs": [],
      "name": "DOMAIN_SEPARATOR",
      "outputs": [
        {
          "internalType": "bytes32",
          "name": "",
          "type": "bytes32"
        }
      ],
      "stateMutability": "view",
      "type": "function"
    },
    {
      "inputs": [],
      "name": "FACTORY",
      "outputs": [
        {
          "internalType": "address",
          "name": "",
          "type": "address"
        }
      ],
      "stateMutability": "view",
      "type": "function"
    },
    {
      "inputs": [
        {
          "internalType": "address",
          "name": "owner",
          "type": "address"
        },
        {
          "internalType": "address",
          "name": "spender",
          "type": "address"
        }
      ],
      "name": "allowance",
      "outputs": [
        {
          "internalType": "uint256",
          "name": "",
          "type": "uint256"
        }
      ],
      "stateMutability": "view",
      "type": "function"
    },
    {
      "inputs": [
        {
          "internalType": "address",
          "name": "spender",
          "type": "address"
        },
        {
          "internalType": "uint256",
          "name": "amount",
          "type": "uint256"
        }
      ],
      "name": "approve",
      "outputs": [
        {
          "internalType": "bool",
          "name": "",
          "type": "bool"
        }
      ],
      "stateMutability": "nonpayable",
      "type": "function"
    },
    {
      "inputs": [
        {
          "internalType": "address",
          "name": "account",
          "type": "address"
        }
      ],
      "name": "balanceOf",
      "outputs": [
        {
          "internalType": "uint256",
          "name": "",
          "type": "uint256"
        }
      ],
      "stateMutability": "view",
      "type": "function"
    },
    {
      "inputs": [
        {
          "internalType": "address",
          "name": "",
          "type": "address"
        }
      ],
      "name": "bridges",
      "outputs": [
        {
          "components": [
            {
              "internalType": "uint256",
              "name": "timestamp",
              "type": "uint256"
            },
            {
              "internalType": "uint256",
              "name": "ratePerSecond",
              "type": "uint256"
            },
            {
              "internalType": "uint256",
              "name": "maxLimit",
              "type": "uint256"
            },
            {
              "internalType": "uint256",
              "name": "currentLimit",
              "type": "uint256"
            }
          ],
          "internalType": "struct IXERC20.BridgeParameters",
          "name": "minterParams",
          "type": "tuple"
        },
        {
          "components": [
            {
              "internalType": "uint256",
              "name": "timestamp",
              "type": "uint256"
            },
            {
              "internalType": "uint256",
              "name": "ratePerSecond",
              "type": "uint256"
            },
            {
              "internalType": "uint256",
              "name": "maxLimit",
              "type": "uint256"
            },
            {
              "internalType": "uint256",
              "name": "currentLimit",
              "type": "uint256"
            }
          ],
          "internalType": "struct IXERC20.BridgeParameters",
          "name": "burnerParams",
          "type": "tuple"
        }
      ],
      "stateMutability": "view",
      "type": "function"
    },
    {
      "inputs": [
        {
          "internalType": "address",
          "name": "_user",
          "type": "address"
        },
        {
          "internalType": "uint256",
          "name": "_amount",
          "type": "uint256"
        }
      ],
      "name": "burn",
      "outputs": [],
      "stateMutability": "nonpayable",
      "type": "function"
    },
    {
      "inputs": [
        {
          "internalType": "address",
          "name": "_bridge",
          "type": "address"
        }
      ],
      "name": "burningCurrentLimitOf",
      "outputs": [
        {
          "internalType": "uint256",
          "name": "_limit",
          "type": "uint256"
        }
      ],
      "stateMutability": "view",
      "type": "function"
    },
    {
      "inputs": [
        {
          "internalType": "address",
          "name": "_bridge",
          "type": "address"
        }
      ],
      "name": "burningMaxLimitOf",
      "outputs": [
        {
          "internalType": "uint256",
          "name": "_limit",
          "type": "uint256"
        }
      ],
      "stateMutability": "view",
      "type": "function"
    },
    {
      "inputs": [],
      "name": "decimals",
      "outputs": [
        {
          "internalType": "uint8",
          "name": "",
          "type": "uint8"
        }
      ],
      "stateMutability": "view",
      "type": "function"
    },
    {
      "inputs": [
        {
          "internalType": "address",
          "name": "spender",
          "type": "address"
        },
        {
          "internalType": "uint256",
          "name": "subtractedValue",
          "type": "uint256"
        }
      ],
      "name": "decreaseAllowance",
      "outputs": [
        {
          "internalType": "bool",
          "name": "",
          "type": "bool"
        }
      ],
      "stateMutability": "nonpayable",
      "type": "function"
    },
    {
      "inputs": [],
      "name": "eip712Domain",
      "outputs": [
        {
          "internalType": "bytes1",
          "name": "fields",
          "type": "bytes1"
        },
        {
          "internalType": "string",
          "name": "name",
          "type": "string"
        },
        {
          "internalType": "string",
          "name": "version",
          "type": "string"
        },
        {
          "internalType": "uint256",
          "name": "chainId",
          "type": "uint256"
        },
        {
          "internalType": "address",
          "name": "verifyingContract",
          "type": "address"
        },
        {
          "internalType": "bytes32",
          "name": "salt",
          "type": "bytes32"
        },
        {
          "internalType": "uint256[]",
          "name": "extensions",
          "type": "uint256[]"
        }
      ],
      "stateMutability": "view",
      "type": "function"
    },
    {
      "inputs": [
        {
          "internalType": "address",
          "name": "spender",
          "type": "address"
        },
        {
          "internalType": "uint256",
          "name": "addedValue",
          "type": "uint256"
        }
      ],
      "name": "increaseAllowance",
      "outputs": [
        {
          "internalType": "bool",
          "name": "",
          "type": "bool"
        }
      ],
      "stateMutability": "nonpayable",
      "type": "function"
    },
    {
      "inputs": [
        {
          "internalType": "string",
          "name": "_name",
          "type": "string"
        },
        {
          "internalType": "string",
          "name": "_symbol",
          "type": "string"
        },
        {
          "internalType": "address",
          "name": "_factory",
          "type": "address"
        }
      ],
      "name": "initialize",
      "outputs": [],
      "stateMutability": "nonpayable",
      "type": "function"
    },
    {
      "inputs": [],
      "name": "lockbox",
      "outputs": [
        {
          "internalType": "address",
          "name": "",
          "type": "address"
        }
      ],
      "stateMutability": "view",
      "type": "function"
    },
    {
      "inputs": [
        {
          "internalType": "address",
          "name": "_user",
          "type": "address"
        },
        {
          "internalType": "uint256",
          "name": "_amount",
          "type": "uint256"
        }
      ],
      "name": "mint",
      "outputs": [],
      "stateMutability": "nonpayable",
      "type": "function"
    },
    {
      "inputs": [
        {
          "internalType": "address",
          "name": "_bridge",
          "type": "address"
        }
      ],
      "name": "mintingCurrentLimitOf",
      "outputs": [
        {
          "internalType": "uint256",
          "name": "_limit",
          "type": "uint256"
        }
      ],
      "stateMutability": "view",
      "type": "function"
    },
    {
      "inputs": [
        {
          "internalType": "address",
          "name": "_bridge",
          "type": "address"
        }
      ],
      "name": "mintingMaxLimitOf",
      "outputs": [
        {
          "internalType": "uint256",
          "name": "_limit",
          "type": "uint256"
        }
      ],
      "stateMutability": "view",
      "type": "function"
    },
    {
      "inputs": [],
      "name": "name",
      "outputs": [
        {
          "internalType": "string",
          "name": "",
          "type": "string"
        }
      ],
      "stateMutability": "view",
      "type": "function"
    },
    {
      "inputs": [
        {
          "internalType": "address",
          "name": "owner",
          "type": "address"
        }
      ],
      "name": "nonces",
      "outputs": [
        {
          "internalType": "uint256",
          "name": "",
          "type": "uint256"
        }
      ],
      "stateMutability": "view",
      "type": "function"
    },
    {
      "inputs": [],
      "name": "owner",
      "outputs": [
        {
          "internalType": "address",
          "name": "",
          "type": "address"
        }
      ],
      "stateMutability": "view",
      "type": "function"
    },
    {
      "inputs": [
        {
          "internalType": "address",
          "name": "owner",
          "type": "address"
        },
        {
          "internalType": "address",
          "name": "spender",
          "type": "address"
        },
        {
          "internalType": "uint256",
          "name": "value",
          "type": "uint256"
        },
        {
          "internalType": "uint256",
          "name": "deadline",
          "type": "uint256"
        },
        {
          "internalType": "uint8",
          "name": "v",
          "type": "uint8"
        },
        {
          "internalType": "bytes32",
          "name": "r",
          "type": "bytes32"
        },
        {
          "internalType": "bytes32",
          "name": "s",
          "type": "bytes32"
        }
      ],
      "name": "permit",
      "outputs": [],
      "stateMutability": "nonpayable",
      "type": "function"
    },
    {
      "inputs": [],
      "name": "renounceOwnership",
      "outputs": [],
      "stateMutability": "nonpayable",
      "type": "function"
    },
    {
      "inputs": [
        {
          "internalType": "address",
          "name": "_bridge",
          "type": "address"
        },
        {
          "internalType": "uint256",
          "name": "_mintingLimit",
          "type": "uint256"
        },
        {
          "internalType": "uint256",
          "name": "_burningLimit",
          "type": "uint256"
        }
      ],
      "name": "setLimits",
      "outputs": [],
      "stateMutability": "nonpayable",
      "type": "function"
    },
    {
      "inputs": [
        {
          "internalType": "address",
          "name": "_lockbox",
          "type": "address"
        }
      ],
      "name": "setLockbox",
      "outputs": [],
      "stateMutability": "nonpayable",
      "type": "function"
    },
    {
      "inputs": [],
      "name": "symbol",
      "outputs": [
        {
          "internalType": "string",
          "name": "",
          "type": "string"
        }
      ],
      "stateMutability": "view",
      "type": "function"
    },
    {
      "inputs": [],
      "name": "totalSupply",
      "outputs": [
        {
          "internalType": "uint256",
          "name": "",
          "type": "uint256"
        }
      ],
      "stateMutability": "view",
      "type": "function"
    },
    {
      "inputs": [
        {
          "internalType": "address",
          "name": "to",
          "type": "address"
        },
        {
          "internalType": "uint256",
          "name": "amount",
          "type": "uint256"
        }
      ],
      "name": "transfer",
      "outputs": [
        {
          "internalType": "bool",
          "name": "",
          "type": "bool"
        }
      ],
      "stateMutability": "nonpayable",
      "type": "function"
    },
    {
      "inputs": [
        {
          "internalType": "address",
          "name": "from",
          "type": "address"
        },
        {
          "internalType": "address",
          "name": "to",
          "type": "address"
        },
        {
          "internalType": "uint256",
          "name": "amount",
          "type": "uint256"
        }
      ],
      "name": "transferFrom",
      "outputs": [
        {
          "internalType": "bool",
          "name": "",
          "type": "bool"
        }
      ],
      "stateMutability": "nonpayable",
      "type": "function"
    },
    {
      "inputs": [
        {
          "internalType": "address",
          "name": "newOwner",
          "type": "address"
        }
      ],
      "name": "transferOwnership",
      "outputs": [],
      "stateMutability": "nonpayable",
      "type": "function"
    }
  ],
  "transactionHash": "0x271826981d1c9304e6d5c90a448a18159ab081006ef442c650a7afbc83517f24",
  "args": [],
  "numDeployments": 1,
  "solcInputHash": "bb59aa0379ca1a23f9b7b912dac85bf7",
  "bytecode": "0x608060405234801561001057600080fd5b5061242d806100206000396000f3fe608060405234801561001057600080fd5b50600436106101da5760003560e01c8063715018a611610104578063a08d5654116100a2578063ced67f0c11610071578063ced67f0c14610430578063d505accf146104c3578063dd62ed3e146104d6578063f2fde38b1461050f57600080fd5b8063a08d5654146103ca578063a457c2d7146103dd578063a9059cbb146103f0578063c1eb71371461040357600080fd5b80638da5cb5b116100de5780638da5cb5b1461038b57806395d89b411461039c578063998955d3146103a45780639dc29fac146103b757600080fd5b8063715018a6146103555780637ecebe001461035d57806384b0196e1461037057600080fd5b8063313ce5671161017c578063435350b71161014b578063435350b7146102f3578063651fd2681461030657806366cc57021461031957806370a082311461032c57600080fd5b8063313ce567146102b65780633644e515146102c557806339509351146102cd57806340c10f19146102e057600080fd5b80630c05f82c116101b85780630c05f82c1461023557806318160ddd1461027057806323b872dd146102785780632dd310001461028b57600080fd5b806306fdde03146101df578063077f224a146101fd578063095ea7b314610212575b600080fd5b6101e7610522565b6040516101f49190611e8c565b60405180910390f35b61021061020b366004611f5e565b6105b4565b005b610225610220366004611fd2565b610720565b60405190151581526020016101f4565b610262610243366004611ffc565b6001600160a01b03166000908152610100602052604090206002015490565b6040519081526020016101f4565b603554610262565b610225610286366004612017565b61073a565b60fe5461029e906001600160a01b031681565b6040516001600160a01b0390911681526020016101f4565b604051601281526020016101f4565b610262610760565b6102256102db366004611fd2565b61076f565b6102106102ee366004611fd2565b6107ae565b610210610301366004611ffc565b6107bd565b610262610314366004611ffc565b610862565b60ff5461029e906001600160a01b031681565b61026261033a366004611ffc565b6001600160a01b031660009081526033602052604090205490565b610210610897565b61026261036b366004611ffc565b6108ab565b6103786108c9565b6040516101f49796959493929190612053565b6065546001600160a01b031661029e565b6101e761098b565b6102626103b2366004611ffc565b61099a565b6102106103c5366004611fd2565b6109d2565b6102106103d8366004612105565b6109dd565b6102256103eb366004611fd2565b610a42565b6102256103fe366004611fd2565b610af7565b610262610411366004611ffc565b6001600160a01b03166000908152610100602052604090206006015490565b6104b561043e366004611ffc565b610100602090815260009182526040918290208251608080820185528254825260018301548285015260028301548286015260038301546060808401919091528551918201865260048401548252600584015494820194909452600683015494810194909452600790910154918301919091529082565b6040516101f4929190612138565b6102106104d1366004612184565b610b05565b6102626104e43660046121f7565b6001600160a01b03918216600090815260346020908152604080832093909416825291909152205490565b61021061051d366004611ffc565b610c69565b6060603680546105319061222a565b80601f016020809104026020016040519081016040528092919081815260200182805461055d9061222a565b80156105aa5780601f1061057f576101008083540402835291602001916105aa565b820191906000526020600020905b81548152906001019060200180831161058d57829003601f168201915b5050505050905090565b600054610100900460ff16158080156105d45750600054600160ff909116105b806105ee5750303b1580156105ee575060005460ff166001145b6106655760405162461bcd60e51b815260206004820152602e60248201527f496e697469616c697a61626c653a20636f6e747261637420697320616c72656160448201527f647920696e697469616c697a656400000000000000000000000000000000000060648201526084015b60405180910390fd5b6000805460ff191660011790558015610688576000805461ff0019166101001790555b6106928484610cf9565b61069b84610d6e565b6106a3610e18565b6106ac82610e8b565b60fe805473ffffffffffffffffffffffffffffffffffffffff19166001600160a01b038416179055801561071a576000805461ff0019169055604051600181527f7f26b83ff96e1f2b6a682f133852f6798a09c465da95921460cefb38474024989060200160405180910390a15b50505050565b60003361072e818585610eea565b60019150505b92915050565b600033610748858285611042565b6107538585856110ce565b60019150505b9392505050565b600061076a6112c2565b905090565b3360008181526034602090815260408083206001600160a01b038716845290915281205490919061072e90829086906107a9908790612274565b610eea565b6107b93383836112cc565b5050565b60fe546001600160a01b03163314610801576040517f2029e52500000000000000000000000000000000000000000000000000000000815260040160405180910390fd5b60ff805473ffffffffffffffffffffffffffffffffffffffff19166001600160a01b0383169081179091556040519081527ffa2e15ea41196e438f0593ecdd6036acd83bdfcd39d627b77c17eab43f376a399060200160405180910390a150565b6001600160a01b038116600090815261010060205260408120600381015460028201548254600190930154610734939061132a565b61089f6113a2565b6108a96000610e8b565b565b6001600160a01b038116600090815260cb6020526040812054610734565b6000606080600080600060606097546000801b1480156108e95750609854155b6109355760405162461bcd60e51b815260206004820152601560248201527f4549503731323a20556e696e697469616c697a65640000000000000000000000604482015260640161065c565b61093d6113fc565b61094561140b565b604080516000808252602082019092527f0f000000000000000000000000000000000000000000000000000000000000009b939a50919850469750309650945092509050565b6060603780546105319061222a565b6001600160a01b038116600090815261010060205260408120600781015460068201546004830154600590930154610734939061132a565b6107b933838361141a565b6109e56113a2565b6109ef8284611473565b6109f9818461151a565b60408051838152602081018390526001600160a01b038516917f93f3bbfe8cfb354ec059175107653f49f6eb479a8622a7d83866ea015435c944910160405180910390a2505050565b3360008181526034602090815260408083206001600160a01b038716845290915281205490919083811015610adf5760405162461bcd60e51b815260206004820152602560248201527f45524332303a2064656372656173656420616c6c6f77616e63652062656c6f7760448201527f207a65726f000000000000000000000000000000000000000000000000000000606482015260840161065c565b610aec8286868403610eea565b506001949350505050565b60003361072e8185856110ce565b83421115610b555760405162461bcd60e51b815260206004820152601d60248201527f45524332305065726d69743a206578706972656420646561646c696e65000000604482015260640161065c565b60007f6e71edae12b1b97f4d1f60370fef10105fa2faae0126114a169c64845d6126c9888888610b848c6115c5565b6040805160208101969096526001600160a01b0394851690860152929091166060840152608083015260a082015260c0810186905260e0016040516020818303038152906040528051906020012090506000610bdf826115ed565b90506000610bef82878787611635565b9050896001600160a01b0316816001600160a01b031614610c525760405162461bcd60e51b815260206004820152601e60248201527f45524332305065726d69743a20696e76616c6964207369676e61747572650000604482015260640161065c565b610c5d8a8a8a610eea565b50505050505050505050565b610c716113a2565b6001600160a01b038116610ced5760405162461bcd60e51b815260206004820152602660248201527f4f776e61626c653a206e6577206f776e657220697320746865207a65726f206160448201527f6464726573730000000000000000000000000000000000000000000000000000606482015260840161065c565b610cf681610e8b565b50565b600054610100900460ff16610d645760405162461bcd60e51b815260206004820152602b60248201527f496e697469616c697a61626c653a20636f6e7472616374206973206e6f74206960448201526a6e697469616c697a696e6760a81b606482015260840161065c565b6107b9828261165d565b600054610100900460ff16610dd95760405162461bcd60e51b815260206004820152602b60248201527f496e697469616c697a61626c653a20636f6e7472616374206973206e6f74206960448201526a6e697469616c697a696e6760a81b606482015260840161065c565b610cf6816040518060400160405280600181526020017f31000000000000000000000000000000000000000000000000000000000000008152506116e1565b600054610100900460ff16610e835760405162461bcd60e51b815260206004820152602b60248201527f496e697469616c697a61626c653a20636f6e7472616374206973206e6f74206960448201526a6e697469616c697a696e6760a81b606482015260840161065c565b6108a9611774565b606580546001600160a01b0383811673ffffffffffffffffffffffffffffffffffffffff19831681179093556040519116919082907f8be0079c531659141344cd1fd0a4f28419497f9722a3daafe3b4186f6b6457e090600090a35050565b6001600160a01b038316610f655760405162461bcd60e51b8152602060048201526024808201527f45524332303a20617070726f76652066726f6d20746865207a65726f2061646460448201527f7265737300000000000000000000000000000000000000000000000000000000606482015260840161065c565b6001600160a01b038216610fe15760405162461bcd60e51b815260206004820152602260248201527f45524332303a20617070726f766520746f20746865207a65726f20616464726560448201527f7373000000000000000000000000000000000000000000000000000000000000606482015260840161065c565b6001600160a01b0383811660008181526034602090815260408083209487168084529482529182902085905590518481527f8c5be1e5ebec7d5bd14f71427d1e84f3dd0314c0f7b2291e5b200ac8c7c3b925910160405180910390a3505050565b6001600160a01b03838116600090815260346020908152604080832093861683529290522054600019811461071a57818110156110c15760405162461bcd60e51b815260206004820152601d60248201527f45524332303a20696e73756666696369656e7420616c6c6f77616e6365000000604482015260640161065c565b61071a8484848403610eea565b6001600160a01b03831661114a5760405162461bcd60e51b815260206004820152602560248201527f45524332303a207472616e736665722066726f6d20746865207a65726f20616460448201527f6472657373000000000000000000000000000000000000000000000000000000606482015260840161065c565b6001600160a01b0382166111c65760405162461bcd60e51b815260206004820152602360248201527f45524332303a207472616e7366657220746f20746865207a65726f206164647260448201527f6573730000000000000000000000000000000000000000000000000000000000606482015260840161065c565b6001600160a01b038316600090815260336020526040902054818110156112555760405162461bcd60e51b815260206004820152602660248201527f45524332303a207472616e7366657220616d6f756e742065786365656473206260448201527f616c616e63650000000000000000000000000000000000000000000000000000606482015260840161065c565b6001600160a01b0380851660008181526033602052604080822086860390559286168082529083902080548601905591517fddf252ad1be2c89b69c2b068fc378daa952ba7f163c4a11628f55a4df523b3ef906112b59086815260200190565b60405180910390a361071a565b600061076a6117e8565b60ff546001600160a01b0384811691161461131b5760006112ec84610862565b90508181101561130f576040516305b4215560e11b815260040160405180910390fd5b611319828561185c565b505b61132582826118b4565b505050565b8383811461139a57426113406201518085612274565b1161134c57508261139a565b4261135a6201518085612274565b111561139a57600061136c8442612287565b9050600061137a848361229a565b6113849084612274565b90508581116113935780611395565b855b925050505b949350505050565b6065546001600160a01b031633146108a95760405162461bcd60e51b815260206004820181905260248201527f4f776e61626c653a2063616c6c6572206973206e6f7420746865206f776e6572604482015260640161065c565b6060609980546105319061222a565b6060609a80546105319061222a565b60ff546001600160a01b0384811691161461146957600061143a8461099a565b90508181101561145d576040516305b4215560e11b815260040160405180910390fd5b6114678285611975565b505b61132582826119d1565b6001600160a01b038116600090815261010060205260408120600201549061149a83610862565b6001600160a01b03841660009081526101006020526040902060020185905590506114c6848383611b3c565b6001600160a01b038416600090815261010060205260409020600301556114f062015180856122b1565b6001600160a01b039093166000908152610100602052604090206001810193909355505042905550565b6001600160a01b03811660009081526101006020526040812060060154906115418361099a565b6001600160a01b038416600090815261010060205260409020600601859055905061156d848383611b3c565b6001600160a01b0384166000908152610100602052604090206007015561159762015180856122b1565b6001600160a01b03909316600090815261010060205260409020600581019390935550504260049091015550565b6001600160a01b038116600090815260cb602052604090208054600181018255905b50919050565b60006107346115fa6112c2565b836040517f19010000000000000000000000000000000000000000000000000000000000008152600281019290925260228201526042902090565b600080600061164687878787611b93565b9150915061165381611c57565b5095945050505050565b600054610100900460ff166116c85760405162461bcd60e51b815260206004820152602b60248201527f496e697469616c697a61626c653a20636f6e7472616374206973206e6f74206960448201526a6e697469616c697a696e6760a81b606482015260840161065c565b60366116d48382612321565b5060376113258282612321565b600054610100900460ff1661174c5760405162461bcd60e51b815260206004820152602b60248201527f496e697469616c697a61626c653a20636f6e7472616374206973206e6f74206960448201526a6e697469616c697a696e6760a81b606482015260840161065c565b60996117588382612321565b50609a6117658282612321565b50506000609781905560985550565b600054610100900460ff166117df5760405162461bcd60e51b815260206004820152602b60248201527f496e697469616c697a61626c653a20636f6e7472616374206973206e6f74206960448201526a6e697469616c697a696e6760a81b606482015260840161065c565b6108a933610e8b565b60007f8b73c3c69bb8fe3d512ecc4cf759cc79239f7b179b0ffacaa9a75d522b39400f611813611dbc565b61181b611e15565b60408051602081019490945283019190915260608201524660808201523060a082015260c00160405160208183030381529060405280519060200120905090565b600061186782610862565b6001600160a01b038316600090815261010060205260409020429055905061188f8382612287565b6001600160a01b03909216600090815261010060205260409020600301919091555050565b6001600160a01b03821661190a5760405162461bcd60e51b815260206004820152601f60248201527f45524332303a206d696e7420746f20746865207a65726f206164647265737300604482015260640161065c565b806035600082825461191c9190612274565b90915550506001600160a01b0382166000818152603360209081526040808320805486019055518481527fddf252ad1be2c89b69c2b068fc378daa952ba7f163c4a11628f55a4df523b3ef910160405180910390a35050565b60006119808261099a565b6001600160a01b0383166000908152610100602052604090204260049091015590506119ac8382612287565b6001600160a01b03909216600090815261010060205260409020600701919091555050565b6001600160a01b038216611a4d5760405162461bcd60e51b815260206004820152602160248201527f45524332303a206275726e2066726f6d20746865207a65726f2061646472657360448201527f7300000000000000000000000000000000000000000000000000000000000000606482015260840161065c565b6001600160a01b03821660009081526033602052604090205481811015611adc5760405162461bcd60e51b815260206004820152602260248201527f45524332303a206275726e20616d6f756e7420657863656564732062616c616e60448201527f6365000000000000000000000000000000000000000000000000000000000000606482015260840161065c565b6001600160a01b03831660008181526033602090815260408083208686039055603580548790039055518581529192917fddf252ad1be2c89b69c2b068fc378daa952ba7f163c4a11628f55a4df523b3ef910160405180910390a3505050565b60008084841115611b7257611b518585612287565b9050808311611b61576000611b6b565b611b6b8184612287565b9150611b8b565b611b7c8486612287565b9050611b888184612274565b91505b509392505050565b6000807f7fffffffffffffffffffffffffffffff5d576e7357a4501ddfe92f46681b20a0831115611bca5750600090506003611c4e565b6040805160008082526020820180845289905260ff881692820192909252606081018690526080810185905260019060a0016020604051602081039080840390855afa158015611c1e573d6000803e3d6000fd5b5050604051601f1901519150506001600160a01b038116611c4757600060019250925050611c4e565b9150600090505b94509492505050565b6000816004811115611c6b57611c6b6123e1565b03611c735750565b6001816004811115611c8757611c876123e1565b03611cd45760405162461bcd60e51b815260206004820152601860248201527f45434453413a20696e76616c6964207369676e61747572650000000000000000604482015260640161065c565b6002816004811115611ce857611ce86123e1565b03611d355760405162461bcd60e51b815260206004820152601f60248201527f45434453413a20696e76616c6964207369676e6174757265206c656e67746800604482015260640161065c565b6003816004811115611d4957611d496123e1565b03610cf65760405162461bcd60e51b815260206004820152602260248201527f45434453413a20696e76616c6964207369676e6174757265202773272076616c60448201527f7565000000000000000000000000000000000000000000000000000000000000606482015260840161065c565b600080611dc76113fc565b805190915015611dde578051602090910120919050565b6097548015611ded5792915050565b7fc5d2460186f7233c927e7db2dcc703c0e500b653ca82273b7bfad8045d85a4709250505090565b600080611e2061140b565b805190915015611e37578051602090910120919050565b6098548015611ded5792915050565b6000815180845260005b81811015611e6c57602081850181015186830182015201611e50565b506000602082860101526020601f19601f83011685010191505092915050565b6020815260006107596020830184611e46565b634e487b7160e01b600052604160045260246000fd5b600082601f830112611ec657600080fd5b813567ffffffffffffffff80821115611ee157611ee1611e9f565b604051601f8301601f19908116603f01168101908282118183101715611f0957611f09611e9f565b81604052838152866020858801011115611f2257600080fd5b836020870160208301376000602085830101528094505050505092915050565b80356001600160a01b0381168114611f5957600080fd5b919050565b600080600060608486031215611f7357600080fd5b833567ffffffffffffffff80821115611f8b57600080fd5b611f9787838801611eb5565b94506020860135915080821115611fad57600080fd5b50611fba86828701611eb5565b925050611fc960408501611f42565b90509250925092565b60008060408385031215611fe557600080fd5b611fee83611f42565b946020939093013593505050565b60006020828403121561200e57600080fd5b61075982611f42565b60008060006060848603121561202c57600080fd5b61203584611f42565b925061204360208501611f42565b9150604084013590509250925092565b7fff00000000000000000000000000000000000000000000000000000000000000881681526000602060e08184015261208f60e084018a611e46565b83810360408501526120a1818a611e46565b606085018990526001600160a01b038816608086015260a0850187905284810360c0860152855180825283870192509083019060005b818110156120f3578351835292840192918401916001016120d7565b50909c9b505050505050505050505050565b60008060006060848603121561211a57600080fd5b61212384611f42565b95602085013595506040909401359392505050565b82518152602080840151818301526040808501518184015260608086015181850152845160808501529184015160a084015283015160c083015282015160e08201526101008101610759565b600080600080600080600060e0888a03121561219f57600080fd5b6121a888611f42565b96506121b660208901611f42565b95506040880135945060608801359350608088013560ff811681146121da57600080fd5b9699959850939692959460a0840135945060c09093013592915050565b6000806040838503121561220a57600080fd5b61221383611f42565b915061222160208401611f42565b90509250929050565b600181811c9082168061223e57607f821691505b6020821081036115e757634e487b7160e01b600052602260045260246000fd5b634e487b7160e01b600052601160045260246000fd5b808201808211156107345761073461225e565b818103818111156107345761073461225e565b80820281158282048414176107345761073461225e565b6000826122ce57634e487b7160e01b600052601260045260246000fd5b500490565b601f82111561132557600081815260208120601f850160051c810160208610156122fa5750805b601f850160051c820191505b8181101561231957828155600101612306565b505050505050565b815167ffffffffffffffff81111561233b5761233b611e9f565b61234f81612349845461222a565b846122d3565b602080601f831160018114612384576000841561236c5750858301515b600019600386901b1c1916600185901b178555612319565b600085815260208120601f198616915b828110156123b357888601518255948401946001909101908401612394565b50858210156123d15787850151600019600388901b60f8161c191681555b5050505050600190811b01905550565b634e487b7160e01b600052602160045260246000fdfea264697066735822122079885bf00a32b63a6d5ba9e83d812ff89015f649701d2ec0a54c0d053e5a71a864736f6c63430008130033",
  "devdoc": {
    "events": {
      "Approval(address,address,uint256)": {
        "details": "Emitted when the allowance of a `spender` for an `owner` is set by a call to {approve}. `value` is the new allowance."
      },
      "BridgeLimitsSet(uint256,uint256,address)": {
        "params": {
          "_bridge": "The address of the bridge we are setting the limit too",
          "_burningLimit": "The updated burning limit we are setting to the bridge",
          "_mintingLimit": "The updated minting limit we are setting to the bridge"
        }
      },
      "EIP712DomainChanged()": {
        "details": "MAY be emitted to signal that the domain could have changed."
      },
      "Initialized(uint8)": {
        "details": "Triggered when the contract has been initialized or reinitialized."
      },
      "LockboxSet(address)": {
        "params": {
          "_lockbox": "The address of the lockbox"
        }
      },
      "Transfer(address,address,uint256)": {
        "details": "Emitted when `value` tokens are moved from one account (`from`) to another (`to`). Note that `value` may be zero."
      }
    },
    "kind": "dev",
    "methods": {
      "DOMAIN_SEPARATOR()": {
        "details": "See {IERC20Permit-DOMAIN_SEPARATOR}."
      },
      "allowance(address,address)": {
        "details": "See {IERC20-allowance}."
      },
      "approve(address,uint256)": {
        "details": "See {IERC20-approve}. NOTE: If `amount` is the maximum `uint256`, the allowance is not updated on `transferFrom`. This is semantically equivalent to an infinite approval. Requirements: - `spender` cannot be the zero address."
      },
      "balanceOf(address)": {
        "details": "See {IERC20-balanceOf}."
      },
      "burn(address,uint256)": {
        "details": "Can only be called by a bridge",
        "params": {
          "_amount": "The amount of tokens being burned",
          "_user": "The address of the user who needs tokens burned"
        }
      },
      "burningCurrentLimitOf(address)": {
        "params": {
          "_bridge": "the bridge we are viewing the limits of"
        },
        "returns": {
          "_limit": "The limit the bridge has"
        }
      },
      "burningMaxLimitOf(address)": {
        "params": {
          "_bridge": "the bridge we are viewing the limits of"
        },
        "returns": {
          "_limit": "The limit the bridge has"
        }
      },
      "decimals()": {
        "details": "Returns the number of decimals used to get its user representation. For example, if `decimals` equals `2`, a balance of `505` tokens should be displayed to a user as `5.05` (`505 / 10 ** 2`). Tokens usually opt for a value of 18, imitating the relationship between Ether and Wei. This is the default value returned by this function, unless it's overridden. NOTE: This information is only used for _display_ purposes: it in no way affects any of the arithmetic of the contract, including {IERC20-balanceOf} and {IERC20-transfer}."
      },
      "decreaseAllowance(address,uint256)": {
        "details": "Atomically decreases the allowance granted to `spender` by the caller. This is an alternative to {approve} that can be used as a mitigation for problems described in {IERC20-approve}. Emits an {Approval} event indicating the updated allowance. Requirements: - `spender` cannot be the zero address. - `spender` must have allowance for the caller of at least `subtractedValue`."
      },
      "eip712Domain()": {
        "details": "See {EIP-5267}. _Available since v4.9._"
      },
      "increaseAllowance(address,uint256)": {
        "details": "Atomically increases the allowance granted to `spender` by the caller. This is an alternative to {approve} that can be used as a mitigation for problems described in {IERC20-approve}. Emits an {Approval} event indicating the updated allowance. Requirements: - `spender` cannot be the zero address."
      },
      "initialize(string,string,address)": {
        "params": {
          "_factory": "The factory which deployed this contract",
          "_name": "The name of the token",
          "_symbol": "The symbol of the token"
        }
      },
      "mint(address,uint256)": {
        "details": "Can only be called by a bridge",
        "params": {
          "_amount": "The amount of tokens being minted",
          "_user": "The address of the user who needs tokens minted"
        }
      },
      "mintingCurrentLimitOf(address)": {
        "params": {
          "_bridge": "the bridge we are viewing the limits of"
        },
        "returns": {
          "_limit": "The limit the bridge has"
        }
      },
      "mintingMaxLimitOf(address)": {
        "params": {
          "_bridge": "the bridge we are viewing the limits of"
        },
        "returns": {
          "_limit": "The limit the bridge has"
        }
      },
      "name()": {
        "details": "Returns the name of the token."
      },
      "nonces(address)": {
        "details": "See {IERC20Permit-nonces}."
      },
      "owner()": {
        "details": "Returns the address of the current owner."
      },
      "permit(address,address,uint256,uint256,uint8,bytes32,bytes32)": {
        "details": "See {IERC20Permit-permit}."
      },
      "renounceOwnership()": {
        "details": "Leaves the contract without owner. It will not be possible to call `onlyOwner` functions. Can only be called by the current owner. NOTE: Renouncing ownership will leave the contract without an owner, thereby disabling any functionality that is only available to the owner."
      },
      "setLimits(address,uint256,uint256)": {
        "details": "Can only be called by the owner",
        "params": {
          "_bridge": "The address of the bridge we are setting the limits too",
          "_burningLimit": "The updated burning limit we are setting to the bridge",
          "_mintingLimit": "The updated minting limit we are setting to the bridge"
        }
      },
      "setLockbox(address)": {
        "params": {
          "_lockbox": "The address of the lockbox"
        }
      },
      "symbol()": {
        "details": "Returns the symbol of the token, usually a shorter version of the name."
      },
      "totalSupply()": {
        "details": "See {IERC20-totalSupply}."
      },
      "transfer(address,uint256)": {
        "details": "See {IERC20-transfer}. Requirements: - `to` cannot be the zero address. - the caller must have a balance of at least `amount`."
      },
      "transferFrom(address,address,uint256)": {
        "details": "See {IERC20-transferFrom}. Emits an {Approval} event indicating the updated allowance. This is not required by the EIP. See the note at the beginning of {ERC20}. NOTE: Does not update the allowance if the current allowance is the maximum `uint256`. Requirements: - `from` and `to` cannot be the zero address. - `from` must have a balance of at least `amount`. - the caller must have allowance for ``from``'s tokens of at least `amount`."
      },
      "transferOwnership(address)": {
        "details": "Transfers ownership of the contract to a new account (`newOwner`). Can only be called by the current owner."
      }
    },
    "version": 1
  },
  "userdoc": {
    "errors": {
      "IXERC20_NotFactory()": [
        {
          "notice": "Reverts when caller is not the factory"
        }
      ],
      "IXERC20_NotHighEnoughLimits()": [
        {
          "notice": "Reverts when a user with too low of a limit tries to call mint/burn"
        }
      ]
    },
    "events": {
      "BridgeLimitsSet(uint256,uint256,address)": {
        "notice": "Emits when a limit is set"
      },
      "LockboxSet(address)": {
        "notice": "Emits when a lockbox is set"
      }
    },
    "kind": "user",
    "methods": {
      "FACTORY()": {
        "notice": "The address of the factory which deployed this contract"
      },
      "bridges(address)": {
        "notice": "Maps bridge address to bridge configurations"
      },
      "burn(address,uint256)": {
        "notice": "Burns tokens for a user"
      },
      "burningCurrentLimitOf(address)": {
        "notice": "Returns the current limit of a bridge"
      },
      "burningMaxLimitOf(address)": {
        "notice": "Returns the max limit of a bridge"
      },
      "initialize(string,string,address)": {
        "notice": "Constructs the initial config of the XERC20"
      },
      "lockbox()": {
        "notice": "The address of the lockbox contract"
      },
      "mint(address,uint256)": {
        "notice": "Mints tokens for a user"
      },
      "mintingCurrentLimitOf(address)": {
        "notice": "Returns the current limit of a bridge"
      },
      "mintingMaxLimitOf(address)": {
        "notice": "Returns the max limit of a bridge"
      },
      "setLimits(address,uint256,uint256)": {
        "notice": "Updates the limits of any bridge"
      },
      "setLockbox(address)": {
        "notice": "Sets the lockbox address"
      }
    },
    "version": 1
  },
  "storageLayout": {
    "storage": [
      {
        "astId": 163,
        "contract": "src/XERC20.sol:XERC20",
        "label": "_initialized",
        "offset": 0,
        "slot": "0",
        "type": "t_uint8"
      },
      {
        "astId": 166,
        "contract": "src/XERC20.sol:XERC20",
        "label": "_initializing",
        "offset": 1,
        "slot": "0",
        "type": "t_bool"
      },
      {
        "astId": 1768,
        "contract": "src/XERC20.sol:XERC20",
        "label": "__gap",
        "offset": 0,
        "slot": "1",
        "type": "t_array(t_uint256)50_storage"
      },
      {
        "astId": 471,
        "contract": "src/XERC20.sol:XERC20",
        "label": "_balances",
        "offset": 0,
        "slot": "51",
        "type": "t_mapping(t_address,t_uint256)"
      },
      {
        "astId": 477,
        "contract": "src/XERC20.sol:XERC20",
        "label": "_allowances",
        "offset": 0,
        "slot": "52",
        "type": "t_mapping(t_address,t_mapping(t_address,t_uint256))"
      },
      {
        "astId": 479,
        "contract": "src/XERC20.sol:XERC20",
        "label": "_totalSupply",
        "offset": 0,
        "slot": "53",
        "type": "t_uint256"
      },
      {
        "astId": 481,
        "contract": "src/XERC20.sol:XERC20",
        "label": "_name",
        "offset": 0,
        "slot": "54",
        "type": "t_string_storage"
      },
      {
        "astId": 483,
        "contract": "src/XERC20.sol:XERC20",
        "label": "_symbol",
        "offset": 0,
        "slot": "55",
        "type": "t_string_storage"
      },
      {
        "astId": 1063,
        "contract": "src/XERC20.sol:XERC20",
        "label": "__gap",
        "offset": 0,
        "slot": "56",
        "type": "t_array(t_uint256)45_storage"
      },
      {
        "astId": 10,
        "contract": "src/XERC20.sol:XERC20",
        "label": "_owner",
        "offset": 0,
        "slot": "101",
        "type": "t_address"
      },
      {
        "astId": 130,
        "contract": "src/XERC20.sol:XERC20",
        "label": "__gap",
        "offset": 0,
        "slot": "102",
        "type": "t_array(t_uint256)49_storage"
      },
      {
        "astId": 2531,
        "contract": "src/XERC20.sol:XERC20",
        "label": "_hashedName",
        "offset": 0,
        "slot": "151",
        "type": "t_bytes32"
      },
      {
        "astId": 2534,
        "contract": "src/XERC20.sol:XERC20",
        "label": "_hashedVersion",
        "offset": 0,
        "slot": "152",
        "type": "t_bytes32"
      },
      {
        "astId": 2536,
        "contract": "src/XERC20.sol:XERC20",
        "label": "_name",
        "offset": 0,
        "slot": "153",
        "type": "t_string_storage"
      },
      {
        "astId": 2538,
        "contract": "src/XERC20.sol:XERC20",
        "label": "_version",
        "offset": 0,
        "slot": "154",
        "type": "t_string_storage"
      },
      {
        "astId": 2796,
        "contract": "src/XERC20.sol:XERC20",
        "label": "__gap",
        "offset": 0,
        "slot": "155",
        "type": "t_array(t_uint256)48_storage"
      },
      {
        "astId": 1168,
        "contract": "src/XERC20.sol:XERC20",
        "label": "_nonces",
        "offset": 0,
        "slot": "203",
        "type": "t_mapping(t_address,t_struct(Counter)1775_storage)"
      },
      {
        "astId": 1176,
        "contract": "src/XERC20.sol:XERC20",
        "label": "_PERMIT_TYPEHASH_DEPRECATED_SLOT",
        "offset": 0,
        "slot": "204",
        "type": "t_bytes32"
      },
      {
        "astId": 1332,
        "contract": "src/XERC20.sol:XERC20",
        "label": "__gap",
        "offset": 0,
        "slot": "205",
        "type": "t_array(t_uint256)49_storage"
      },
      {
        "astId": 5823,
        "contract": "src/XERC20.sol:XERC20",
        "label": "FACTORY",
        "offset": 0,
        "slot": "254",
        "type": "t_address"
      },
      {
        "astId": 5826,
        "contract": "src/XERC20.sol:XERC20",
        "label": "lockbox",
        "offset": 0,
        "slot": "255",
        "type": "t_address"
      },
      {
        "astId": 5832,
        "contract": "src/XERC20.sol:XERC20",
        "label": "bridges",
        "offset": 0,
        "slot": "256",
        "type": "t_mapping(t_address,t_struct(Bridge)5251_storage)"
      },
      {
        "astId": 6447,
        "contract": "src/XERC20.sol:XERC20",
        "label": "__GAP",
        "offset": 0,
        "slot": "257",
        "type": "t_array(t_uint256)49_storage"
      }
    ],
    "types": {
      "t_address": {
        "encoding": "inplace",
        "label": "address",
        "numberOfBytes": "20"
      },
      "t_array(t_uint256)45_storage": {
        "base": "t_uint256",
        "encoding": "inplace",
        "label": "uint256[45]",
        "numberOfBytes": "1440"
      },
      "t_array(t_uint256)48_storage": {
        "base": "t_uint256",
        "encoding": "inplace",
        "label": "uint256[48]",
        "numberOfBytes": "1536"
      },
      "t_array(t_uint256)49_storage": {
        "base": "t_uint256",
        "encoding": "inplace",
        "label": "uint256[49]",
        "numberOfBytes": "1568"
      },
      "t_array(t_uint256)50_storage": {
        "base": "t_uint256",
        "encoding": "inplace",
        "label": "uint256[50]",
        "numberOfBytes": "1600"
      },
      "t_bool": {
        "encoding": "inplace",
        "label": "bool",
        "numberOfBytes": "1"
      },
      "t_bytes32": {
        "encoding": "inplace",
        "label": "bytes32",
        "numberOfBytes": "32"
      },
      "t_mapping(t_address,t_mapping(t_address,t_uint256))": {
        "encoding": "mapping",
        "key": "t_address",
        "label": "mapping(address => mapping(address => uint256))",
        "numberOfBytes": "32",
        "value": "t_mapping(t_address,t_uint256)"
      },
      "t_mapping(t_address,t_struct(Bridge)5251_storage)": {
        "encoding": "mapping",
        "key": "t_address",
        "label": "mapping(address => struct IXERC20.Bridge)",
        "numberOfBytes": "32",
        "value": "t_struct(Bridge)5251_storage"
      },
      "t_mapping(t_address,t_struct(Counter)1775_storage)": {
        "encoding": "mapping",
        "key": "t_address",
        "label": "mapping(address => struct CountersUpgradeable.Counter)",
        "numberOfBytes": "32",
        "value": "t_struct(Counter)1775_storage"
      },
      "t_mapping(t_address,t_uint256)": {
        "encoding": "mapping",
        "key": "t_address",
        "label": "mapping(address => uint256)",
        "numberOfBytes": "32",
        "value": "t_uint256"
      },
      "t_string_storage": {
        "encoding": "bytes",
        "label": "string",
        "numberOfBytes": "32"
      },
      "t_struct(Bridge)5251_storage": {
        "encoding": "inplace",
        "label": "struct IXERC20.Bridge",
        "members": [
          {
            "astId": 5247,
            "contract": "src/XERC20.sol:XERC20",
            "label": "minterParams",
            "offset": 0,
            "slot": "0",
            "type": "t_struct(BridgeParameters)5260_storage"
          },
          {
            "astId": 5250,
            "contract": "src/XERC20.sol:XERC20",
            "label": "burnerParams",
            "offset": 0,
            "slot": "4",
            "type": "t_struct(BridgeParameters)5260_storage"
          }
        ],
        "numberOfBytes": "256"
      },
      "t_struct(BridgeParameters)5260_storage": {
        "encoding": "inplace",
        "label": "struct IXERC20.BridgeParameters",
        "members": [
          {
            "astId": 5253,
            "contract": "src/XERC20.sol:XERC20",
            "label": "timestamp",
            "offset": 0,
            "slot": "0",
            "type": "t_uint256"
          },
          {
            "astId": 5255,
            "contract": "src/XERC20.sol:XERC20",
            "label": "ratePerSecond",
            "offset": 0,
            "slot": "1",
            "type": "t_uint256"
          },
          {
            "astId": 5257,
            "contract": "src/XERC20.sol:XERC20",
            "label": "maxLimit",
            "offset": 0,
            "slot": "2",
            "type": "t_uint256"
          },
          {
            "astId": 5259,
            "contract": "src/XERC20.sol:XERC20",
            "label": "currentLimit",
            "offset": 0,
            "slot": "3",
            "type": "t_uint256"
          }
        ],
        "numberOfBytes": "128"
      },
      "t_struct(Counter)1775_storage": {
        "encoding": "inplace",
        "label": "struct CountersUpgradeable.Counter",
        "members": [
          {
            "astId": 1774,
            "contract": "src/XERC20.sol:XERC20",
            "label": "_value",
            "offset": 0,
            "slot": "0",
            "type": "t_uint256"
          }
        ],
        "numberOfBytes": "32"
      },
      "t_uint256": {
        "encoding": "inplace",
        "label": "uint256",
        "numberOfBytes": "32"
      },
      "t_uint8": {
        "encoding": "inplace",
        "label": "uint8",
        "numberOfBytes": "1"
      }
    }
  }
}