{
  "address": "0x541a6BCC841D3859e493f57Dc474831706b18e18",
  "abi": [
    {
      "inputs": [],
      "name": "IXERC20Lockbox_Native",
      "type": "error"
    },
    {
      "inputs": [],
      "name": "IXERC20Lockbox_NotNative",
      "type": "error"
    },
    {
      "inputs": [],
      "name": "IXERC20Lockbox_WithdrawFailed",
      "type": "error"
    },
    {
      "anonymous": false,
      "inputs": [
        {
          "indexed": false,
          "internalType": "address",
          "name": "_sender",
          "type": "address"
        },
        {
          "indexed": false,
          "internalType": "uint256",
          "name": "_amount",
          "type": "uint256"
        }
      ],
      "name": "Deposit",
      "type": "event"
    },
    {
      "anonymous": false,
      "inputs": [
        {
          "indexed": false,
          "internalType": "uint8",
          "name": "version",
          "type": "uint8"
        }
      ],
      "name": "Initialized",
      "type": "event"
    },
    {
      "anonymous": false,
      "inputs": [
        {
          "indexed": false,
          "internalType": "address",
          "name": "_sender",
          "type": "address"
        },
        {
          "indexed": false,
          "internalType": "uint256",
          "name": "_amount",
          "type": "uint256"
        }
      ],
      "name": "Withdraw",
      "type": "event"
    },
    {
      "inputs": [],
      "name": "ERC20",
      "outputs": [
        {
          "internalType": "contract IERC20",
          "name": "",
          "type": "address"
        }
      ],
      "stateMutability": "view",
      "type": "function"
    },
    {
      "inputs": [],
      "name": "IS_NATIVE",
      "outputs": [
        {
          "internalType": "bool",
          "name": "",
          "type": "bool"
        }
      ],
      "stateMutability": "view",
      "type": "function"
    },
    {
      "inputs": [],
      "name": "XERC20",
      "outputs": [
        {
          "internalType": "contract IXERC20",
          "name": "",
          "type": "address"
        }
      ],
      "stateMutability": "view",
      "type": "function"
    },
    {
      "inputs": [
        {
          "internalType": "uint256",
          "name": "_amount",
          "type": "uint256"
        }
      ],
      "name": "deposit",
      "outputs": [],
      "stateMutability": "nonpayable",
      "type": "function"
    },
    {
      "inputs": [],
      "name": "deposit",
      "outputs": [],
      "stateMutability": "payable",
      "type": "function"
    },
    {
      "inputs": [
        {
          "internalType": "address",
          "name": "_xerc20",
          "type": "address"
        },
        {
          "internalType": "address",
          "name": "_erc20",
          "type": "address"
        },
        {
          "internalType": "bool",
          "name": "_isNative",
          "type": "bool"
        }
      ],
      "name": "initialize",
      "outputs": [],
      "stateMutability": "nonpayable",
      "type": "function"
    },
    {
      "inputs": [
        {
          "internalType": "uint256",
          "name": "_amount",
          "type": "uint256"
        }
      ],
      "name": "withdraw",
      "outputs": [],
      "stateMutability": "nonpayable",
      "type": "function"
    },
    {
      "stateMutability": "payable",
      "type": "receive"
    }
  ],
  "transactionHash": "0xb01cbad7a474562eb351bb700c0c0410abba3301ecabb8bb107e2b916decae8a",
  "args": [],
  "numDeployments": 1,
  "solcInputHash": "b3761fb924b0e6b429c8900bfca544af",
  "bytecode": "0x608060405234801561001057600080fd5b50610b5b806100206000396000f3fe6080604052600436106100745760003560e01c8063b6b55f251161004e578063b6b55f251461011c578063cc4aa2041461013c578063d0e30db01461015c578063e4bbb5a81461016457600080fd5b80632e1a7d4d14610088578063479d3976146100a8578063b20a0fb9146100de57600080fd5b3661008357610081610184565b005b600080fd5b34801561009457600080fd5b506100816100a3366004610a01565b61026a565b3480156100b457600080fd5b506001546100c990600160a01b900460ff1681565b60405190151581526020015b60405180910390f35b3480156100ea57600080fd5b50600054610104906201000090046001600160a01b031681565b6040516001600160a01b0390911681526020016100d5565b34801561012857600080fd5b50610081610137366004610a01565b6103dc565b34801561014857600080fd5b50600154610104906001600160a01b031681565b610081610184565b34801561017057600080fd5b5061008161017f366004610a47565b6104d8565b600154600160a01b900460ff166101c7576040517f8467cb4b00000000000000000000000000000000000000000000000000000000815260040160405180910390fd5b6000546040516340c10f1960e01b8152336004820152346024820152620100009091046001600160a01b0316906340c10f1990604401600060405180830381600087803b15801561021757600080fd5b505af115801561022b573d6000803e3d6000fd5b5050604080513381523460208201527fe1fffcc4923d04b559f4d29a8bfc6cda04eb5b0d3c460751c2402c5c5cc9109c935001905060405180910390a1565b6000546040517f9dc29fac00000000000000000000000000000000000000000000000000000000815233600482015260248101839052620100009091046001600160a01b031690639dc29fac90604401600060405180830381600087803b1580156102d457600080fd5b505af11580156102e8573d6000803e3d6000fd5b5050600154600160a01b900460ff16159150610388905057604051600090339083908381818185875af1925050503d8060008114610342576040519150601f19603f3d011682016040523d82523d6000602084013e610347565b606091505b5050905080610382576040517fab8a5c3400000000000000000000000000000000000000000000000000000000815260040160405180910390fd5b5061039f565b60015461039f906001600160a01b03163383610673565b60408051338152602081018390527f884edad9ce6fa2440d8a54cc123490eb96d2768479d49ff9c7366125a942436491015b60405180910390a150565b600154600160a01b900460ff1615610420576040517f46e927a000000000000000000000000000000000000000000000000000000000815260040160405180910390fd5b600154610438906001600160a01b0316333084610721565b6000546040516340c10f1960e01b815233600482015260248101839052620100009091046001600160a01b0316906340c10f1990604401600060405180830381600087803b15801561048957600080fd5b505af115801561049d573d6000803e3d6000fd5b505060408051338152602081018590527fe1fffcc4923d04b559f4d29a8bfc6cda04eb5b0d3c460751c2402c5c5cc9109c93500190506103d1565b600054610100900460ff16158080156104f85750600054600160ff909116105b806105125750303b158015610512575060005460ff166001145b6105895760405162461bcd60e51b815260206004820152602e60248201527f496e697469616c697a61626c653a20636f6e747261637420697320616c72656160448201527f647920696e697469616c697a656400000000000000000000000000000000000060648201526084015b60405180910390fd5b6000805460ff1916600117905580156105ac576000805461ff0019166101001790555b600080547fffffffffffffffffffff0000000000000000000000000000000000000000ffff16620100006001600160a01b038781169190910291909117909155600180549185167fffffffffffffffffffffff00000000000000000000000000000000000000000090921691909117600160a01b84151502179055801561066d576000805461ff0019169055604051600181527f7f26b83ff96e1f2b6a682f133852f6798a09c465da95921460cefb38474024989060200160405180910390a15b50505050565b6040516001600160a01b03831660248201526044810182905261071c9084907fa9059cbb00000000000000000000000000000000000000000000000000000000906064015b60408051601f198184030181529190526020810180517bffffffffffffffffffffffffffffffffffffffffffffffffffffffff167fffffffff0000000000000000000000000000000000000000000000000000000090931692909217909152610772565b505050565b6040516001600160a01b038085166024830152831660448201526064810182905261066d9085907f23b872dd00000000000000000000000000000000000000000000000000000000906084016106b8565b60006107c7826040518060400160405280602081526020017f5361666545524332303a206c6f772d6c6576656c2063616c6c206661696c6564815250856001600160a01b031661085a9092919063ffffffff16565b90508051600014806107e85750808060200190518101906107e89190610a8e565b61071c5760405162461bcd60e51b815260206004820152602a60248201527f5361666545524332303a204552433230206f7065726174696f6e20646964206e60448201527f6f742073756363656564000000000000000000000000000000000000000000006064820152608401610580565b60606108698484600085610871565b949350505050565b6060824710156108e95760405162461bcd60e51b815260206004820152602660248201527f416464726573733a20696e73756666696369656e742062616c616e636520666f60448201527f722063616c6c00000000000000000000000000000000000000000000000000006064820152608401610580565b600080866001600160a01b031685876040516109059190610ad6565b60006040518083038185875af1925050503d8060008114610942576040519150601f19603f3d011682016040523d82523d6000602084013e610947565b606091505b509150915061095887838387610963565b979650505050505050565b606083156109d25782516000036109cb576001600160a01b0385163b6109cb5760405162461bcd60e51b815260206004820152601d60248201527f416464726573733a2063616c6c20746f206e6f6e2d636f6e74726163740000006044820152606401610580565b5081610869565b61086983838151156109e75781518083602001fd5b8060405162461bcd60e51b81526004016105809190610af2565b600060208284031215610a1357600080fd5b5035919050565b80356001600160a01b0381168114610a3157600080fd5b919050565b8015158114610a4457600080fd5b50565b600080600060608486031215610a5c57600080fd5b610a6584610a1a565b9250610a7360208501610a1a565b91506040840135610a8381610a36565b809150509250925092565b600060208284031215610aa057600080fd5b8151610aab81610a36565b9392505050565b60005b83811015610acd578181015183820152602001610ab5565b50506000910152565b60008251610ae8818460208701610ab2565b9190910192915050565b6020815260008251806020840152610b11816040850160208701610ab2565b601f01601f1916919091016040019291505056fea2646970667358221220d4125740be54856b1b42c9d4b29bef2e16c9c61018a5fc1767b34a9cfd24160764736f6c63430008130033",
  "devdoc": {
    "events": {
      "Initialized(uint8)": {
        "details": "Triggered when the contract has been initialized or reinitialized."
      }
    },
    "kind": "dev",
    "methods": {
      "deposit(uint256)": {
        "params": {
          "_amount": "The amount of tokens to deposit"
        }
      },
      "initialize(address,address,bool)": {
        "params": {
          "_erc20": "The address of the ERC20 contract",
          "_xerc20": "The address of the XERC20 contract"
        }
      },
      "withdraw(uint256)": {
        "params": {
          "_amount": "The amount of tokens to withdraw"
        }
      }
    },
    "version": 1
  },
  "userdoc": {
    "errors": {
      "IXERC20Lockbox_Native()": [
        {
          "notice": "Reverts when a user tries to deposit non-native tokens on a native lockbox"
        }
      ],
      "IXERC20Lockbox_NotNative()": [
        {
          "notice": "Reverts when a user tries to deposit native tokens on a non-native lockbox"
        }
      ],
      "IXERC20Lockbox_WithdrawFailed()": [
        {
          "notice": "Reverts when a user tries to withdraw and the call fails"
        }
      ]
    },
    "events": {
      "Deposit(address,uint256)": {
        "notice": "Emitted when tokens are deposited into the lockbox"
      },
      "Withdraw(address,uint256)": {
        "notice": "Emitted when tokens are withdrawn from the lockbox"
      }
    },
    "kind": "user",
    "methods": {
      "ERC20()": {
        "notice": "The ERC20 token of this contract"
      },
      "IS_NATIVE()": {
        "notice": "Whether the ERC20 token is the native gas token of this chain"
      },
      "XERC20()": {
        "notice": "The XERC20 token of this contract"
      },
      "deposit()": {
        "notice": "Deposit native tokens into the lockbox"
      },
      "deposit(uint256)": {
        "notice": "Deposit ERC20 tokens into the lockbox"
      },
      "initialize(address,address,bool)": {
        "notice": "Constructor"
      },
      "withdraw(uint256)": {
        "notice": "Withdraw ERC20 tokens from the lockbox"
      }
    },
    "version": 1
  },
  "storageLayout": {
    "storage": [
      {
        "astId": 6,
        "contract": "src/XERC20Lockbox.sol:XERC20Lockbox",
        "label": "_initialized",
        "offset": 0,
        "slot": "0",
        "type": "t_uint8"
      },
      {
        "astId": 9,
        "contract": "src/XERC20Lockbox.sol:XERC20Lockbox",
        "label": "_initializing",
        "offset": 1,
        "slot": "0",
        "type": "t_bool"
      },
      {
        "astId": 2117,
        "contract": "src/XERC20Lockbox.sol:XERC20Lockbox",
        "label": "XERC20",
        "offset": 2,
        "slot": "0",
        "type": "t_contract(IXERC20)2055"
      },
      {
        "astId": 2121,
        "contract": "src/XERC20Lockbox.sol:XERC20Lockbox",
        "label": "ERC20",
        "offset": 0,
        "slot": "1",
        "type": "t_contract(IERC20)1163"
      },
      {
        "astId": 2124,
        "contract": "src/XERC20Lockbox.sol:XERC20Lockbox",
        "label": "IS_NATIVE",
        "offset": 20,
        "slot": "1",
        "type": "t_bool"
      },
      {
        "astId": 2281,
        "contract": "src/XERC20Lockbox.sol:XERC20Lockbox",
        "label": "__GAP",
        "offset": 0,
        "slot": "2",
        "type": "t_array(t_uint256)49_storage"
      }
    ],
    "types": {
      "t_array(t_uint256)49_storage": {
        "base": "t_uint256",
        "encoding": "inplace",
        "label": "uint256[49]",
        "numberOfBytes": "1568"
      },
      "t_bool": {
        "encoding": "inplace",
        "label": "bool",
        "numberOfBytes": "1"
      },
      "t_contract(IERC20)1163": {
        "encoding": "inplace",
        "label": "contract IERC20",
        "numberOfBytes": "20"
      },
      "t_contract(IXERC20)2055": {
        "encoding": "inplace",
        "label": "contract IXERC20",
        "numberOfBytes": "20"
      },
      "t_uint256": {
        "encoding": "inplace",
        "label": "uint256",
        "numberOfBytes": "32"
      },
      "t_uint8": {
        "encoding": "inplace",
        "label": "uint8",
        "numberOfBytes": "1"
      }
    }
  }
}